:100000008AC20000A5C20000A3C20000A1C2000075
:100010009FC200009DC200009BC2000099C2000068
:1000200097C2000095C200000C949E170C945A17BA
:100030000C94A9188DC200008BC2000089C2000078
:1000400087C2000085C2000083C2000081C2000098
:100050007FC200000C9485187BC2000079C20000AA
:1000600077C2000075C2000073C2000071C20000B8
:100070006FC200006DC200006BC2000069C20000C8
:1000800067C2000065C2000063C2000061C20000D8
:100090005FC200005DC200005BC2000059C20000E8
:1000A00057C2000055C2000053C2000005010902FA
:1000B000A10185020901A1000509190129081500FE
:1000C0002501950875018102050109300931158165
:1000D000257F95027508810609381581257F9501D0
:1000E00075088106050C0A38021581257F95017572
:1000F000088106C0C005010980A101850319012AF4
:10010000B700150126B700950175108100C0050CD8
:100110000901A101850419012AA002150126A002E6
:10012000950175108100C00660FF0961A101096297
:10013000150026FF00952075088102096315002629
:10014000FF00952075089102C005010906A101056F
:100150000719E029E7150025019508750181029529
:1001600001750881010507190029FF150026FF0008
:100170009506750881000508190129051500250156
:10018000950575019102950175039101C00000006C
:10019000000000000000000000000000000000005F
:1001A000000000000000000000000000000000004F
:1001B000007E0F00D4FFFFFFC700000078000000A2
:1001C00000000000002A2B280000000000000000B2
:1001D000000000000000000029000000002C1E3478
:1001E00020212224342627252E362D3738271E1F7E
:1001F000202122232425263333362E37381F0405A9
:10020000060708090A0B0C0D0E0F10111213141516
:10021000161718191A1B1C1D2F3130232D350405F4
:10022000060708090A0B0C0D0E0F101112131415F6
:10023000161718191A1B1C1D2F3130354C29001F99
:100240000021002300250027002E001E0020002290
:1002500000240026002D0031002B001A0015001C80
:10026000000C0013003000140008001700180012E2
:10027000002F002A00E000160009000B000E0033DA
:10028000002800040007000A000D000F00340035AC
:100290000000001D000600050010003700E500E129
:1002A000001B00190011003600380052003900E22E
:1002B000002C002800904223525100E30091412C71
:1002C000002A00E60050004F0001003B003D003FC7
:1002D000004100430045003A003C003E004000421F
:1002E0000044004900010001004B00010060006271
:1002F000000100010052004A005F0061000100019E
:1003000000010050004F0001005D000100010001EC
:1003100000510001005C005E0001004C0000000183
:100320000001004D0059005B000100010001004E7A
:100330000062005A00630001000100010001000199
:1003400000010001000100010001000100010001A5
:100350000001000100010001000100010001000195
:100360000001000100010001000100010001000185
:100370000001000100010001000100010001000175
:100380000001000100010001000100010001000165
:100390000001000100010001000100010001000155
:1003A0000001000100010001000000010001000146
:1003B0000001000100010001000100010001000135
:1003C0000001000100010001000100010001000125
:1003D0000001000100010001000100010001000115
:1003E00000A5003B003D003F004100430045003AAE
:1003F000003C003E0040004200440049003900013A
:100400000001000100460048000100010001000158
:100410000001004700520001000100A900B0005592
:10042000004A0050000100AA00A800010054004B3F
:10043000004F004C00000001000100010056004E7A
:1004400000010001000100010057004D00510001B2
:100450000001000100010001000100010001000194
:100460000001000100010001000100010009025B20
:1004700000030100A0FA09040000010301010009C2
:100480002111010001224400070581030800010930
:1004900004010002030000000921110100012222D1
:1004A000000705820320000107050303200001095E
:1004B0000402000103000000092111010001227B58
:1004C000000705840320000112010002000000085B
:1004D00060330100000101020001140353006900B0
:1004E0007800700061006300650036003000000095
:1004F000200349006E00660069006E006900740008
:10050000650020004D006F006E006B0065007900F3
:1005100000000403090411241FBECFEFDAE0DEBFA0
:10052000CDBF11E0A0E0B1E0E8E4FCE302C005903B
:100530000D92AA36B107D9F722E0AAE6B1E001C0D0
:100540001D92A733B207E1F70E94D0180C94D01D7A
:1005500057CD482F209133029091FA0157E029138B
:1005600002C080E0089530E0529FF001539FF00DEB
:100570001124E550FE4F8181681306C08081481325
:1005800003C085818111EECF2F5F3F4F2770E7CFEA
:10059000E8EDF0E080818E7F80831092E20010927F
:1005A000DA001092E100A0EEB0E08C9181608C93B3
:1005B00080818F77808319BCA7EDB0E08C918E7F0E
:1005C0008C9380818F7E80831092E5010895209125
:1005D000E4003091E50095E6A9012091EC00822F1E
:1005E000817020FF06C08091E80080FF06C080E097
:1005F00008952091E80022FD1AC08091F00188231F
:1006000089F0853089F08091EB0085FD0FC0209145
:10061000E4003091E50042175307F9F29150E1F6FA
:1006200084E0089582E0089583E0089581E00895CC
:100630008091F20187FF13C08091E80082FF06C01D
:100640008091E8008B778093E80004C08091F001EE
:100650008111F2CF08958091F0018823D9F3809120
:10066000E80080FFF8CF8091E8008E77ECCF982FDC
:100670009093E900242F762F50E0891731F0709184
:10068000EC002091ED005091F00021FD07C09F5F2C
:10069000973071F78093E90081E008953091EB0085
:1006A0003E7F3093EB003091ED003D7F3093ED00C5
:1006B0003091EB0031603093EB007093EC002093AD
:1006C000ED005093F0002091EE0027FDE0CF80E098
:1006D0000895B0E0A0E0EFE6F3E00C94381DC8ED1B
:1006E000D0E088818F7E8883E7EDF0E080818160B3
:1006F000808384E082BF81E08093E50188818E7FE2
:10070000888302EE10E0F80110821092DA0081EE88
:10071000C82ED12CF601108288818F77888388813A
:100720008068888388818F7D888319BC1092F0014E
:100730001092F1011092EF011092EE0190EEE92E6D
:10074000F12CF70180818B7F808388818160888391
:1007500042E060E080E08BDFF60180818E7F808365
:10076000F801808181608083808188608083F701C7
:1007700080818E7F8083888180618883CDB7DEB75A
:10078000E8E00C94541DFC018091F8019091F9016E
:1007900086179707A0F06115710529F49091E8007C
:1007A0009E779093E80090E06115710551F49111E6
:1007B00008C08091E80082FF34C080E00895BC0149
:1007C000F2CF8091F0018823C1F18530C1F1809191
:1007D000E80083FD30C08091E80082FDEACF80917F
:1007E000E80080FFE1CF8091F3002091F200382FE4
:1007F0006115710519F02830310558F091E0283065
:10080000310509F090E02091E8002E772093E80070
:10081000CBCF81918093F100615071092F5F3F4FE1
:10082000E7CF8091F001882341F0853041F080913D
:10083000E80083FFBECF81E0089582E0089583E061
:100840000895089587E797E790930108809300083B
:1008500088E19AE00FB6F894A895809360000FBEE7
:1008600090936000FFCF2FB7F8948091E1019091B1
:10087000E201A091E301B091E4012FBF08958091BE
:100880000D0108959C01FC0132969FEF80E041919B
:10089000461751F09F3F19F4411101C0982F8F5F07
:1008A0008630A9F79F3F09F40895290F311D97FD60
:1008B0003A95F90162830895A3E0B0E0E2E6F4E03E
:1008C0000C943E1D2091DE013091DF01281739077D
:1008D000B1F09093DF018093DE01E091DC01F091B3
:1008E000DD01309761F00084F185E02D309739F01B
:1008F00024E029839B838A83CE0101960995239660
:10090000E2E00C945A1DA3E0B0E0E9E8F4E00C94B6
:100910003E1D2091DA013091DB0128173907B1F033
:100920009093DB018093DA01E091DC01F091DD012D
:10093000309761F00084F185E02D309739F023E0A5
:1009400029839B838A83CE01019609952396E2E051
:100950000C945A1DE091DC01F091DD01309739F0E3
:100960000190F081E02D309711F00995089580E015
:10097000089579DF9C019091D6018091D701982B41
:1009800021F03093D3012093D2019091D80180912E
:10099000D901982B21F03093D1012093D001E0911F
:1009A000DC01F091DD01309759F00680F781E02DF0
:1009B000309731F082E08093D40184ED91E0099585
:1009C00008958091CF0180FD16C081FD16C082FD83
:1009D00016C08091CE018823A1F0883280F428E0EF
:1009E000829FC001112468E270E00E940E1D862FD4
:1009F000672B39F0089582E0089584E0089588E037
:100A0000089581E008958091CF0180FD14C081FD9B
:100A100014C082FD16C08091CD01882381F08E31F3
:100A200080F420E5829FC00111246EE170E00E94F5
:100A30000E1D862F089584E1089588E2089588E0C8
:100A4000089580E50895282F35EB2303C001112474
:100A500097FF04C080589109892F089580589F4FAF
:100A6000FBCF80E00895F894E82FE295EF70F0E076
:100A700031A1282F2F7081E090E001C0880F2A95C6
:100A8000EAF7982F9095932391A392A1892B82A3A3
:100A9000789408959091B50192FF10C041E0282FFD
:100AA0002471243009F040E031E0282F28712830EB
:100AB00009F030E0431711F02CE0822793FF10C0BB
:100AC00041E0282F2471243109F040E031E0282F43
:100AD0002871283109F030E0431711F02CE082270B
:100AE0003091B60130FF10C051E0282F2171213024
:100AF00009F050E041E0282F2871283009F040E04B
:100B0000541711F029E0822731FF10C041E0282F4F
:100B10002171213109F040E031E0282F287128317E
:100B200009F030E0431711F029E0822794FD877E19
:100B3000089582389105B9F1B0F48133910509F433
:100B40007DC048F48932910509F46DC08A3291055F
:100B500009F47BC008958533910509F45FC089339A
:100B6000910509F10895833E9105D9F138F4803E4D
:100B7000910529F1823E910579F10895863E91050E
:100B8000D9F1873E910509F43EC0843E910541F5B7
:100B90002091B60121FF24C08091B50184FD19C0C8
:100BA00087EE90E008952091B501237009F05AC0B6
:100BB0002091B60123FF14C089E290E008952091AE
:100BC000B50120FD38C03091B60130FF09C024FFC7
:100BD00043C090E080E008952091B50122FDF7CF59
:100BE00008952091B50122FD3AC03091B60130FD43
:100BF00039C024FFF5CFEDCF2091B50123FFF0CF11
:100C000024FDE7CFCDCF2091B50123FD2EC030913B
:100C1000B60131FFEECF84EE90E008952091B5014A
:100C200025FFDECFC9CF2091B50125FD21C0209140
:100C3000B60123FFD5CF89E390E0D2CF2091B50153
:100C400026FFCECF8AE290E008952091B50126FFDD
:100C5000C7CF81E390E0089583EE90E0089582EE9F
:100C600090E0089580EE90E0089586EE90E008957B
:100C700085E390E008951F93CF93DF935ADFEC0153
:100C8000C11580E5D807F0F5C11580E4D80708F054
:100C90009AC0C03ED10520F5CD3CD10508F082C0F8
:100CA000C83AD10578F4C53AD10508F073C0C1300F
:100CB000D10519F1209709F1C430D105F0F4D0E045
:100CC000C0E01BC0C33CD105D0F7C85AD0E0CC0F60
:100CD000DD1FCD5EDE4F0990D881C02DD4640DC0DC
:100CE000C11580E2D80708F0CDC0C11581E0D80752
:100CF00008F05AC0C83ED10510F7CE01DF91CF9160
:100D00001F910895C03682E5D80718F5C03482E5F2
:100D1000D80708F068C0C03282E5D80708F05CC088
:100D2000C11582E5D80708F493C02C2F2695269587
:100D300080E2289F900111248C2F8370C1E0D0E0C5
:100D400002C0CC0FDD1F8A95E2F7C22BD32BDD68E2
:100D5000D4CFC03A82E5D80760F4C03882E5D8071E
:100D600008F456C0CF71D0E0DC2FCC27C46FD06A16
:100D7000C4CFC03C82E5D80708F45FC0C03E82E51E
:100D8000D80708F09CCFDC2FCC27CC27DF71C06FB1
:100D9000D06AB3CFC55AD0E0C05FDE4FC881D0E083
:100DA000D064ABCFD065A9CF8D2F74DE182FCE01C4
:100DB0009927BFDEC12FD0E0DC2FCC27CC27DF71F5
:100DC000C82BD92B9ACFCE019927B3DECC27DF7061
:100DD000C82BD92BD06A91CFCF71D0E0DC2FCC2794
:100DE000C16FD06A8ACF2C2F26952695277080E276
:100DF000289F900111248C2F8370C1E0D0E002C0A5
:100E0000CC0FDD1F8A95E2F7C22BD32BDC6875CFA0
:100E10002C2F26952695277080E2289F900111247B
:100E20008C2F8370C1E0D0E002C0CC0FDD1F8A950B
:100E3000E2F7C22BD32BDA6860CF8C2F8F712ADEBA
:100E4000C82FD0E0DC2FCC27CC27DF71D06255CF64
:100E50008C2F8F711FDE55E0D695C7955A95E1F717
:100E6000CF70D0E0DC2FCC27282F30E084FF06C0E5
:100E700044E0220F331F4A95E1F73327C22BD32BCF
:100E8000D0693BCF8D2F8F7105DE182FCE019927AA
:100E900050DEC12FD0E0DC2FCC27CC27DF71C82B50
:100EA000D92BD4CF80959091A30198239093A3013F
:100EB0000895809133029091FA01981301C008952A
:100EC0008F5F8770FACF292F9A3078F5873068F5D1
:100ED00090E037E0239F800D911D1124682F6770EB
:100EE00023E0969587952A95E1F7FC01EE0FFF1F09
:100EF000E80FF91FEA58FE4F50E040E080E02191F2
:100F000030E0062E02C0369527950A94E2F721704C
:100F10003327042E01C0220F0A94EAF7822B4F5F79
:100F20005F4F4330510559F7089580E00895292F08
:100F30009A3098F5873088F590E037E0239F800D50
:100F4000911D1124282F277041E001C0440F2A95DC
:100F5000EAF723E0969587952A95E1F7FC01EE0FD5
:100F6000FF1FE80FF91FEA58FE4F30E020E070E065
:100F70005191DF011197CB01022E02C09695879502
:100F80000A94E2F7817081958527842385278C93C5
:100F90002F5F3F4F2330310559F708958093B401F7
:100FA00008959091B40121E030E0F90101C0EE0F05
:100FB0008A95EAF7D90102C0AA0FBB1F6A95E2F72A
:100FC000EA2B01C0220F4A95EAF7892F8E23E813F6
:100FD00003C0292B822FE2CF20952923FBCF21E0CC
:100FE00030E001C0220F8A95EAF720958091B40184
:100FF0008223D4CF90919801809589238093980182
:10100000282F277061F4891751F09091B60192FF53
:1010100006C0869586958695E2DF10929801089520
:1010200021E030E001C0220F8A95EAF78091B401F7
:10103000822BB4CF8093B3010895662309F453C083
:101040008D3C29F4E0DC81958093D70192CC8E3CD5
:1010500011F4D9DCF9CF8F3C29F4D5DC819580934C
:10106000D601F4CF803D11F4CEDCF9CF893D21F4D7
:10107000A8DC8093D801EACF8A3D19F4A2DC8195DF
:10108000F8CF8B3D29F49DDC81958093D901DECF8B
:101090008C3D11F496DCF9CF9FE2980F983070F4F4
:1010A000815D990B21E030E001C0220F8A95EAF7BB
:1010B0008091D501822B8093D501C8CF8D3D31F42D
:1010C0008091CF0181608093CF01C0CF8E3D21F40C
:1010D0008091CF018260F7CF8F3D09F0B7CF80912B
:1010E000CF018460F0CF4091D6018D3C59F48091BE
:1010F000D70187FF0DC01092D70141110BC010928C
:10110000CD0108C08E3C81F48091D70118169CF364
:10111000442381F08091D8019091D901892B09F065
:1011200095CF1092CE0192CF8F3C49F447FFF0CF7C
:101130001092D6018091D7018111ECCFE0CF803D94
:1011400019F41416ACF3E4CF9091D801893D29F439
:101150001916F4F61092D801DBCF8A3D19F497FFE7
:10116000D7CFF8CF9091D9018B3D29F497FFD0CFFD
:101170001092D901CDCF8C3D19F41916CCF3C8CFFC
:101180009FE2980F983090F4815D990B21E030E058
:10119000B90102C0660F771F8A95E2F7CB018095EF
:1011A0009091D50189238093D501B2CF8D3D31F443
:1011B0008091CF018E7F8093CF01AACF8E3D21F405
:1011C0008091CF018D7FF7CF8F3D09F0A1CF809126
:1011D000CF018B7FF0CF0F931F93CF93DF938B01C2
:1011E000EA019091F001943059F58093E9008FEF76
:1011F0009091E800815095FD06C095ED9A95F1F724
:1012000000008111F5CF8091E80085FF19C0DFD97A
:10121000811111C08091E80085FD06C08091E80031
:101220008E778093E800F3CFF80181918F0180934E
:10123000F100219779F78091E8008E778093E8009C
:10124000DF91CF911F910F91089543E050E0BC01D1
:1012500084E0C1CF46E050E0BC0184E0BCCFCF9336
:10126000DF93EC0148E050E0BC0181E0B4DF88E0AE
:10127000FE01A6EEB1E001900D928A95E1F7DF91B3
:10128000CF910895603229F440E250E0BC0182E041
:10129000A2CF08951F93CF93DF93122F8430E0F4F1
:1012A0006A30D0F44730C0F4C42FD0E0CC0FDD1F3B
:1012B0009EE0699FC00DD11D11249CE8899FC00D3F
:1012C000D11D1124632FCE0189960E94951D612F97
:1012D000CE018A960E94951DDF91CF911F910895AE
:1012E000AF92BF92CF92DF92EF92FF921F93CF9374
:1012F000DF938DE3C82E82E0D82ED0E07601C0E0E7
:1013000013C0F50125913491412F6C2F8D2FC2DF31
:1013100082E0A80EB11C1F5F173099F78EE0E80E2F
:10132000F11CCF5FCA3019F0570110E0EACFDF5F40
:101330008CE8C80ED11CD43009F7DF91CF911F91F2
:10134000FF90EF90DF90CF90BF90AF900895CF9334
:10135000DF9385E290E00E94791DD82F86E290E02D
:101360000E94791DC82F87E290E00E94791DD53236
:1013700059F4C63049F491E0873109F090E0892FA3
:101380008170DF91CF91089580E0FACF9B01275AB9
:101390003D4F673A71408105910518F4C9010C94DD
:1013A000791D80E00895CF92DF92EF92FF92CF9364
:1013B000DF93EC01C880D980EA80FB80C701B601C9
:1013C000E5DF9FEFC91AD90AE90AF90AC882D9826A
:1013D000EA82FB82DF91CF91FF90EF90DF90CF9078
:1013E00008950F931F93CF93DF93843030F56A30C5
:1013F00020F5473010F5C42FD0E0CC0FDD1F2EE0D4
:10140000629FC00DD11D11243CE8839FC00DD11DEA
:101410001124CE0189960E94791D082F10E0102F0B
:101420000027CE018A960E94791D9801282BC901B8
:10143000DF91CF911F910F91089590E080E0F8CF58
:10144000462F7A3030F4673020F4843010F4672F60
:10145000C8CF90E080E00895CF92DF92FF920F9383
:101460001F93CF93DF936C010091B4018091B3017E
:10147000082BC3E0D0E010E0FC2EC8010C2E02C007
:10148000959587950A94E2F780FD0CC02197A0F707
:10149000F12C8F2DDF91CF911F910F91FF90DF9055
:1014A000CF900895B6018C2FCBDFE5DB019771F368
:1014B000F0CFCF93DF93EC01CFDFBE01C1DFDBDBE9
:1014C000DF91CF910895FC0124812223B9F080811E
:1014D0009181EFDF92959F70963091F058F4925F72
:1014E0009F70923058F4803F19F030F4883E30F409
:1014F00081E008959A5FF4CF843FD1F380E00895AE
:10150000883EB0F3813FD1F7F3CFA6E0B0E0EBE83F
:10151000FAE00C943D1D26E0FC01DE0111960190DD
:101520000D922A95E1F7FC01258189819A81222378
:1015300081F0662371F090DF182F682F89819A81DE
:10154000F6DC69817A81812F7BDF2696E3E00C94BB
:10155000591DB9DC182FF5CFA0E1B0E0E2EBFAE0BD
:101560000C94301DCE0101965C0180E1F5011192D1
:101570008A95E9F70BE110E099E5892E92E0992E22
:1015800027EA422E55245394612C712C6201F1E11B
:101590004F165104610471042CF080E1C82ED12C47
:1015A000E12CF12CA601B401C5010E94861D8C0C12
:1015B0009D1C0D2C000CEE08FF084C185D086E08F1
:1015C0007F080150110911F76096E0E10C944C1D61
:1015D0006FEF85E290E00E94951D6FEF86E290E04C
:1015E0000E94951D6FEF87E290E00E94951D60E0DC
:1015F00088E290E00E94951D73DEAEDF65E285E231
:1016000090E00E94951D66E086E290E00E94951DA4
:1016100067E187E290E00C94951D9091B60192FBF2
:10162000222720F9281771F080FB92F99093B601D8
:101630006091B5017091B60184E090E00E94AF1D09
:1016400082E0D8CC08952091A30180919A01282BA3
:1016500080919901882381F0282B30E08EE691E07B
:10166000FC014191CF0141113F5FF1E084379F07B9
:10167000B9F731111092990120936C0148E050E0C4
:101680006BE971E08CE691E00E94C31D892BB9F0F3
:1016900088E0ECE6F1E0ABE9B1E001900D928A95CB
:1016A000E1F7E091DC01F091DD01309741F002803B
:1016B000F381E02D309719F08CE691E009950895BB
:1016C000CF931092A301C6E0EEE6F1E0DF018C2F8C
:1016D0001D928A95E9F790E080E015D990E080E0CE
:1016E000EBD810929A01AFDFE4EDF1E0DF011D923B
:1016F000CA95E9F71092CD011092CE011092CF0158
:1017000038D9CF910895AAE2B0E0E9E8FBE00C9463
:101710003D1D82EF91E02091F100DC012D93CD0180
:10172000B1E08A3F9B07B9F78091F301833009F458
:1017300072C0B8F4813009F449C0823009F4B6C0EF
:101740008091E80083FF96C28091F2019091F301AD
:101750009A3008F08FC2E92FF0E0EE52F24E0C946E
:10176000211D8A3009F491C08B3009F471C0893091
:1017700039F78091F201813219F78091F601909149
:10178000F701009711F00297D9F68091E800877F62
:101790008093E8008091E80082FF38C09091F300C8
:1017A0008091F200029731F48091F100813011F0C4
:1017B000863021F48091F10080930D018091E80042
:1017C0008B778093E8000E941803BACF8091F201D2
:1017D000813A09F0B5CF8091E800877F8093E800D7
:1017E0008091F6019091F701892B61F468E086EE13
:1017F00091E070E00E94C3038091E8008B778093B2
:10180000E8009ECF60E090E080E0F3CF8091F001AF
:101810008111C0CF95CF8091F201813A09F090CF2C
:101820008091F6019091F701892B09F089CF809181
:10183000E800877F8093E8008091E80080FFFCCF7C
:1018400080910E018093F1008091E8008E77B9CFEE
:101850008091F201813209F073CF8091F60190916D
:10186000F701892B09F06CCF8091E800877F809386
:10187000E8000E94180381E09091F401911101C0E9
:1018800080E080930E011CDF5BCF8091F2018132FA
:1018900009F056CF8091E800877F8093E8000E948E
:1018A00018038091F50180930C014ACF8091F201D9
:1018B000813A09F045CF8091E800877F8093E80066
:1018C0008091E80080FFFCCF80910C01BBCF803875
:1018D00099F0823809F0CEC18091F6018F7087307F
:1018E00008F0C8C18093E9008091EB0085FB882750
:1018F00080F91092E90006C08091EE019091EF010D
:10190000911182609091E800977F9093E800809316
:10191000F1001092F1008091E8008E77A7C1882332
:1019200009F495C1823009F0A5C18091F4018111BB
:1019300098C18091F6018F702FEF280F263008F0A4
:1019400099C18093E9002091EB0020FF8AC1933078
:1019500031F48091EB0080628093EB0082C1909122
:10196000EB0090619093EB0021E030E001C0220F8A
:101970008A95EAF72093EA001092EA008091EB0042
:101980008860EACF811176C11091F4011F778091B0
:10199000E3008078812B8093E3008091E800877FCB
:1019A0008093E8000E9418038091E80080FFFCCF3C
:1019B0008091E30080688093E30082E0111183E06E
:1019C0008093F00157C18058823008F053C12091B4
:1019D000F4013091F5012C3DE3E03E07A1F583E0F1
:1019E0008A838AE289834FB7F894DE01139620E058
:1019F0003EE051E2E32FF0E050935700E49120FFE6
:101A000003C0E295EF703F5FEF708E2F90E0EA30F9
:101A1000C0F0C7968D939D932F5F243159F74FBF28
:101A20008091E800877F8093E8006AE270E0CE0151
:101A300001960E94C3038091E8008B778093E800B1
:101A400019C1C096E7CF8091F6019091F701432F1D
:101A500055274330510509F44AC078F54130510506
:101A600009F47AC08BE590E0EDE6F4E042305105F0
:101A700009F000C12091E800277F2093E800209121
:101A8000F8013091F9018217930708F49C0140E0B6
:101A90002115310509F065C0411163C08091E8004E
:101AA00082FDC9CF8091F001882329F2853019F297
:101AB0008091E80083FFF2CFBECF4132510509F497
:101AC0003CC04232510509F0D5C08330910508F081
:101AD000D1C0FC01EE0FFF1FE35AFE4F0190F081D1
:101AE000E02D865A9E4FDC018C9190E01AC033277E
:101AF00021303105D1F02115310561F02230310559
:101B000009F0B8C0EAEDF4E0E4918E2F90E0EAED40
:101B1000F4E007C0E2E1F5E0E4918E2F90E0E2E12D
:101B2000F5E0009709F4A6C0A5CFE0EFF4E0E4915A
:101B30008E2F90E0E0EFF4E0F4CF8330910508F0D1
:101B400099C0880F991FFC01ED59FE4F0190F0815B
:101B5000E02D89E090E08ECF82E190E0E8ECF4E0C7
:101B600089CF8091F001882309F465CF853009F48D
:101B700062CF8091E80083FD5ECF8091E80082FD16
:101B80008DCF8091E80080FF83CF9091F30080910A
:101B9000F2002115310519F08830910550F041E02F
:101BA000089709F040E08091E8008E778093E80084
:101BB0006FCF44914093F100319621503109019645
:101BC000E8CF803809F056C08091E800877F809385
:101BD000E8008091F1018093F1009DCE81114AC00F
:101BE0001091F401123008F045C08091E800877F21
:101BF0008093E8001093F1010E941803112311F063
:101C000084E005C08091E30087FDFACF81E08093F6
:101C1000F00142E061EC81E00E94370342E261ECB6
:101C200084E00E94370342E261EC82E00E943703C5
:101C300042E260EC83E00E9437038091F00184303F
:101C400021F081E080930F0115C082E0FBCF8091ED
:101C5000F401813079F481E0933009F080E08093E1
:101C6000EF011092E9008091E800877F8093E800FF
:101C70000E9418038091E80083FF0AC08091E80069
:101C8000877F8093E8008091EB0080628093EB0077
:101C9000AA96E3E00C94591D13DD2FEF84E39CE03A
:101CA000215080409040E1F700C0000088E19AE0B8
:101CB0000FB6F894A895809360000FBE90936000D3
:101CC000FFCF882311F0EED8BECC0895882331F0E1
:101CD0009091A301982B9093A301B5CC08958823EC
:101CE000A1F19CEF980F913A68F4EEE6F1E0919142
:101CF000891303C0DF0111971C9291E0E437F907C3
:101D0000B1F7A1CC90E2980F983048F4877091E039
:101D100001C0990F8A95EAF7892FC4D8F2CF9BE5C5
:101D2000980F933020F490E080E00C94830498E5C1
:101D3000980F9B3120F490E080E00C945C0493E3D6
:101D4000980F933110F460E078C90895CF93C82FAD
:101D50008823A9F08CEF8C0F813AF0F4EEE6F1E0E5
:101D600084E791E0DF012D91C21759F08A179B0794
:101D7000D1F76C2F8CE691E00E94420464DCCF9195
:101D800008952191C21303C0DF0111971C928E1791
:101D90009F07B9F758DCEDCF80E28C0F883068F4EC
:101DA000C77021E030E001C0220FCA95EAF78091A8
:101DB000A301822B8093A301E1CFEBE5EC0FE3308D
:101DC00040F4F0E0E05FFE4F808190E00E948304E9
:101DD000D6CFE8E5EC0FEB3150F4F0E0EE0FFF1F4B
:101DE000ED5EFE4F808191810E945C04C8CF83E349
:101DF0008C0F833120F661E08C2F1FD9C0CFAAE071
:101E0000B0E0E5E0FFE00C94351D8E010F5F1F4F41
:101E10008AE0F80111928A95E9F789E4C82E81E0F9
:101E2000D82EF12CE12CAA24A394B12CF601819197
:101E30006F018F3F09F443C0F894E82FE295EF70EB
:101E4000F0E021A18F70A50102C0440F551F8A95B3
:101E5000E2F7CA01922F982B91A392A18095892332
:101E600082A3789400C0E3E5F1E0912C31E0219168
:101E70002F3F09F44CC0A22FA295AF70B0E090960E
:101E80008C9190E02F7002C0959587952A95E2F786
:101E900080FD3DC0832F982A330F51E0EA35F507C6
:101EA00031F7F601319780818F3F11F00E943305A1
:101EB00080EA8A95F1F7F801EE0DFF1D9082EFEFB1
:101EC000EE1AFE0AFAE0EF16F10409F0AFCF4AE08D
:101ED00050E0B80189EA91E00E94C31D892BD9F036
:101EE0008AE0F801A9EAB1E001900D928A95E1F744
:101EF00081E08093A8010E9433049093A70180930E
:101F0000A60110E0812F2A96EBE00C94511D80E091
:101F1000C2CF10E021C01091A801112391F3E090ED
:101F2000A601F090A7010E9433048E199F0905971E
:101F300040F34AE050E069EA71E083EC91E00E94EE
:101F4000C31D892B31F38AE0E9EAF1E0A3ECB1E0AB
:101F500001900D928A95E1F71092A801D3CF1F93BB
:101F6000CF93DF93182FEB01F1DE209731F4812F0F
:101F7000B6DEDF91CF911F9108958FE99FE0019721
:101F8000F1F700C000002197F0CFEF92FF920F937E
:101F90001F93CF93DF93C62FD42F022FFC0185818F
:101FA0008823A1F0609336020E9433049093350297
:101FB00080933402C77081E001C0880FCA95EAF7A8
:101FC00085DECDB7DEB7E6E00C94561D8091360273
:101FD000681332C0E0903402F09035020E9433045E
:101FE0008E199F09883C910538F510E21D0FCD1719
:101FF000A9F080E28C0F883038F4C77081E001C00E
:10200000880FCA95EAF75DDE183040F481E09D2F15
:10201000977001C0880F9A95EAF758DE70E060E08B
:10202000802F9DDF183068F6D77081E001C0880FDF
:10203000DA95EAF746DEC5CFC77081E001C0880FA8
:10204000CA95EAF7F7CFA4E0B0E0E9E2F0E10C943A
:10205000341D7C01FC018481882309F480C061E087
:10206000C70153DA8C01F7018581882309F4E3C0A5
:10207000980137572038310508F093C4003108F033
:102080005FC066EA71E080E090E080D9811158C0BD
:10209000812C912C540101111FC089829A82AB823C
:1020A000BC824AE0842ECE0101967DD9882309F4B2
:1020B00047C0813009F06CC0CE01019674D98130DF
:1020C000F1F4CE0101966FD970E060E0893311F42C
:1020D00060E570E044DFE7CFF7EA8F16F1E09F0696
:1020E000A104B10469F1C501B40150D9811101C045
:1020F00001502FEF821A920AA20AB20ACCCF823084
:1021000029F4CE0101964FD921DECDCF833029F4B9
:10211000CE01019648D9E3DDC6CF843079F4CE01F3
:10212000019641D910E000E0482F4053550B9A0129
:102130004A305105C0F00115110509F58111B3CFE1
:1021400080919801877059F0F7018581882339F0D3
:102150008091B60182FF03C082E00E94FA072496B4
:10216000ECE00C94501D809EC001819E900D1124C6
:102170008901080F191FCE01019615D9D5CFEFE9B6
:10218000FFE03197F1F700C0000001501109D3CFF3
:10219000E82FF0E0E354FE4F9490282F26952695E3
:1021A000269530E0F901E355FE4FC4908770D12C9D
:1021B000082E02C0D594C7940A94E2F7F1E0CF222A
:1021C000DD24F901E356FE4FA490B12C082E02C085
:1021D000B594A7940A94E2F741E0A422BB24F90144
:1021E000E357FE4F049110E002C0159507958A95BC
:1021F000E2F701701127C114D10411F081EEA6DDC0
:10220000A114B10411F086EEA1DD70E060E0892D2B
:10221000A6DEA114B10411F086EE61DDC114D10473
:1022200011F081EE5CDD0115110509F43CCF70E081
:1022300060E08CE24FCFF801E851FC47E730F10550
:1022400008F098C3E452F24E0C94211D26E241EEB0
:1022500061EEC7019ADE74CF27E245EE65EEF9CF55
:1022600026E241EE60EEF5CF27E245EE64EEF1CFD7
:1022700026E241EE62EEEDCF27E245EE66EEE9CFD3
:1022800028E241E0EBCF8091B50181608093B501F8
:1022900092C08091B60188608093B6018CC0809115
:1022A000B5018260F3CF8091B5018460EFCF80915A
:1022B000B5018860EBCF8091B6018160EDCF809150
:1022C000B6018260E9CF8091B5018061DFCF809156
:1022D000B5018062DBCF8091B5018064D7CFF0D9A2
:1022E0008091B5018068D2CF8091B5018C60CECF4E
:1022F0008091B6018360D0CF8091B5018E7FC6CF2B
:102300008091B601877FC8CF8091B5018D7FBECF08
:102310008091B5018B7FBACF8091B501877FB6CF11
:102320008091B6018E7FB8CF8091B6018D7FB4CFFA
:102330008091B5018F7EAACF8091B5018F7DA6CF08
:102340008091B5018F7BA2CFBBD98091B5018F77EA
:102350009DCF8091B501837F99CF8091B6018C7F0D
:102360009BCF8091B50182FB992790F921E09227BC
:1023700090FB82F990FB83F989CF8091B601982F69
:10238000909591708E7F892B90FB81F985CF9091EC
:10239000B501892F8F7B96FF806478CF91D990917A
:1023A000B501892F97FB87F9805870CF61E08EE0E7
:1023B00090E00E94951D6091B5017091B60184E096
:1023C00090E00E94AF1D7CD9BBCE60E0F0CF909131
:1023D000B501892F8F7E94FF806158CF9091B50110
:1023E000892F8E7F90FF816051CF9091B601892F08
:1023F000877F93FF886050CF85E3C5C207375CE7CE
:102400001507F9F008379CE7190741F19801205E9C
:1024100032452032310520F5811134C00F7181E041
:1024200090E0FC0102C0EE0FFF1F0A95E2F78F015A
:102430006E2F83E090E00E94951D802F0E941A0865
:102440007FCE81E00E94100843E062E081E00E94BC
:10245000D10776CE81E00E94EF07F6CF82E0F2CF7F
:10246000882381F00330FCE71F0709F476C008F0E9
:102470005AC001153CE7130709F463C001301C473B
:1024800009F471C0F701858100811181882309F465
:1024900076C0C8010E942C0AD82E682FC8010E945D
:1024A0009707B8018D2D0E94200A0E943B068C01DF
:1024B000882EF701A580968092943FE09322809128
:1024C0009801877009F1DA2CAA20F9F0812F807F1A
:1024D000803469F080E2800F8830B0F0812F807EF8
:1024E000803229F4F1E0F01778F4992069F08091B6
:1024F000B60182FF09C082E00E94FA07809198012C
:102500008770DD24D3948111D12CC12EC2942FE089
:10251000C2222BE02C1508F491C0EC2DF0E0ED5117
:10252000F24E0C94211D0B355CE7150731F10C358B
:102530008CE71807C9F00A351C4709F0A3CF81E0E2
:102540001AC0BED8EFEFF4E32CE0E150F040204099
:10255000E1F700C000000E9422046FEF7FEF90E0DF
:1025600080E00E94AF1D98DB8091B60182FB882736
:1025700080F991E0892751D885CF80E0FCCFC80150
:102580000E946307D82E8DCF312F3F70B32E107F5E
:1025900019F0B29490EFB922AA20B1F0BB2061F0FB
:1025A00080E2800F883010F0811008C08091A30174
:1025B000B82AB092A30147D8802F3FC080919A01DA
:1025C000B82AB0929A01F7CF802F89DBBB20B1F1F6
:1025D000005E083010F0811004C08B2D0E9452075D
:1025E00006C0B09480919A01B822B0929A012BD87B
:1025F00025C0412F4F70B42E107F103219F0B294C5
:1026000080EFB822882051F051E0851609F456C0B9
:10261000AA2009F461C0992041F1CECF8091B60182
:1026200082FD1FC0AA20C1F0BB2031F08091A30120
:102630008B298093A30107D880E088DB2C2D2850BC
:10264000330B2430310508F066C10E94AA0460E013
:10265000C7010E94850A83CD80E041DBBB2071F376
:10266000BCCFAA2091F0911003C08B2D2FDBE6CFB9
:1026700081E09812E3CF809199019B2D9823B916A0
:10268000E9F28B2980939901D9CF9110D7CF8B2D67
:1026900018DB909199018B2D892329F08B2D809542
:1026A000892380939901909175018B2D892331F2B3
:1026B0008B2D8095892380937501C0CFAA2029F0A6
:1026C00095E0991508F4BACFD0CFE4E0E91508F405
:1026D000B5CF8B2DF6DAB2CF9920D9F3F9E38F126B
:1026E00009C02FEF37EE43E0215030404040E1F782
:1026F00000C00000802FF3DAA1CF812F8695869548
:10270000837061F0813009F099CFC8019370A110F6
:1027100002C080E090E00E945C0490CFC8019370FA
:10272000A11002C080E090E00E94830487CF6A2D50
:10273000802F0E941D0882CF812F837089F5A11000
:102740007DCF402F429546954770440F440F802F10
:102750008F70042E01C0880F0A94EAF7202F207191
:1027600004FF07C02FE030E001C0220F4A95EAF7CE
:102770002095169516951370123069F050F430912B
:10278000B301113029F0822B83230E941A0856CFFF
:10279000832B822BFACF282B8091B3018227F5CF90
:1027A0008695AA2011F0812F8170882309F446CFE5
:1027B000402F429546954770440F440F802F8F70ED
:1027C000042E01C0880F0A94EAF7202F207104FF1D
:1027D00007C02FE030E001C0220F4A95EAF72095AC
:1027E000169516951370123069F050F43091B401BB
:1027F000113029F0822B83230E94CE071FCF832B19
:10280000822BFACF282B8091B4018227F5CF1F703D
:10281000AA2029F0812F0E941008802F27CF802F17
:1028200050DA812F0E94EF0709CF802F52EF8516D3
:10283000B1F1581570F090EF8916D1F0E1EF8E16D6
:1028400091F0AA2009F457C09110B6CE812F8F7154
:102850002AC0F3EF8F1651F124EF8212F2CF90913C
:10286000B60192FD2FC0812F8F71AA20D9F21BC013
:10287000AA2081F034E0391508F4E0CE1F7181E020
:1028800090E0012E01C0880F0A94EAF79091B401FC
:102890008927B2CF45E0491508F4D0CEEFCF812F7C
:1028A0008F71A110BFCF0E941008C8CE80E0AA206F
:1028B00009F4A2CF1F7181E0012E01C0880F0A9494
:1028C000EAF79ACFAA2061F0812F8F7192FFEBCFA8
:1028D00058E0859F90011124236020939801E3CF55
:1028E00081E00E94FA0781E0891508F0A7CE82E016
:1028F0000E94FA07A3CE992059F0893309F0FACE45
:102900009FEFE7EEF3E09150E040F040E1F7F0CECA
:10291000812F8F7187CFDD2009F499CE80919801A6
:1029200080FD95CEF70115828695869586950E9445
:102930001008C70188DB8091980186958695869559
:102940000E94EF0784CE0631FCE71F0709F056CD41
:102950008091A3018A7A91E009F490E09093740148
:1029600069E2811165E38CE691E00E9442040E94D5
:10297000230BE6CB06312CE71207A1F580917401F9
:1029800081113ACD89E2EEE6F1E024E731E0919160
:10299000891303C0DF0111971C922E173F07B9F767
:1029A000E6CFF801E851FC47E730F10508F44ACCDE
:1029B00010923602980130572332310520F684E018
:1029C00090E00E94811D9093B6018093B501F801BB
:1029D000E150F047E232F10508F055CCE151F24EFA
:1029E0000C94211D07373CE7130709F433CD083752
:1029F0004CE7140709F00ACD82E02DCDCF93DF9389
:102A000080919701807F09F04CC0809196018823C6
:102A100009F447C0E09133025091FA01C09192014C
:102A2000D0919101609193017091940147E05E17FC
:102A3000C1F18E2F90E0E49FF0011124E550FE4F8C
:102A40002481222389F1489FF001499FF00D112430
:102A5000DF01A550BE4F11962C9111972C1324C065
:102A60002C912D1321C015962C91159721111CC066
:102A700012962D913C91261B370B283C3105A0F472
:102A8000809197018F70806180939701EF5FFD4F78
:102A900080818F708061808381E991E0D4DA0E9427
:102AA0005907DF91CF910895FC013196E770BFCFB0
:102AB000A4E1B0E0EDE5F5E1D7C78C0186E0F801CF
:102AC000DE011F9601900D928A95E1F7F80184814D
:102AD000E58091E9A92E91E0B92E9091950191118F
:102AE00025C0882301F1EE20E1F0C8010E94630AAD
:102AF000F82E8823B1F087E0F801D50101900D92FE
:102B00008A95E1F780919501813031F480919101AE
:102B1000909192010E94590A71DF8F2D6496ECE02A
:102B2000BFC7C80190DAFF24F394F7CFD080C180EB
:102B300082809380F09096012091930130919401CE
:102B4000A401421B530BFF2009F4D3C0483C51059C
:102B500008F08EC0882309F390919201809197012B
:102B6000282F207F09F054C0C91213C09091910101
:102B7000D9120FC0E11046C08F7080618093970119
:102B800081E991E060DA80919701F8018683F12C68
:102B9000C4CFE11037C06C2D8D2D0E94A9026C2D81
:102BA0008D2D0E94A902E82E8111F1CFDF86C88AFF
:102BB0008F8598890E94590A292F22952F702430D9
:102BC00058F49F70223080F0992391F0F80196819B
:102BD000907F71F4FE2CA1CF2A5F2F70223060F01D
:102BE000C80131DAEF2CF6CF992311F0882391F345
:102BF000805E883078F3F4CF803F60F3815F83306C
:102C000078F7E8CF80919701816080939701BFCFDB
:102C1000C91207C090919101D91203C0EE2009F4A6
:102C200089C0C8010E94630A882309F47ACFEE2084
:102C300009F477CF80919701803280F02091910143
:102C400030919201398728879B868A8690919501D9
:102C50009C871D868E87CE010896F5D987E0F801FE
:102C6000A1E9B1E001900D928A95E1F7C7DE5BCF53
:102C700090919701292F207F49F481E991E0E3D9D0
:102C800087E0F50111928A95E9F781CF882309F44D
:102C900044CF809192018C110FC080919101D81284
:102CA0000BC0E11009C09683C801CDD987E0F501BA
:102CB00011928A95E9F731CFC8010E94630A8823EF
:102CC00009F42FCFEE2009F42CCF809197018032A8
:102CD00028F220919101309192013A8329839C82BC
:102CE0008B82909195019D831E828F83CE010196E8
:102CF000B4CF483C5105D0F6882309F414CFFE2CFC
:102D0000EE2009F40ECF809192018C111FC08091AA
:102D10009101D8121BC08091970180FD0EC0982FA1
:102D2000907F59F08683903F31F0982F907F905F8D
:102D30008F70892B8683C80186D987E0F801A1E9C5
:102D4000B1E001900D928A95E1F7E7CEC8010E94AB
:102D5000630A811183CF80919701816080939701ED
:102D6000C80171D9DACEABE1B0E0E8EBF6E185C697
:102D70004E8B5F8B688F798F8A8F9B8F911110920A
:102D80009A011D8A86E0FE017696DE011F9601906B
:102D90000D928A95E1F78B89882351F061E0CE018D
:102DA0000F960E94850A61E0CE010F960E94850A67
:102DB00087E0FE013F96DE01189601900D928A95FC
:102DC000E1F7CE01089674DE81112AC087E0FE018A
:102DD0003896DE01119601900D928A95E1F78C8567
:102DE0008823F1F02091FA0130E0C9010196877043
:102DF00099274091330248171906E1F097E0929F16
:102E0000D001939FB00D1124A550BE4FFE01319605
:102E100001900D929A95E1F78093FA010E9459076B
:102E200017E0809133029091FA01891311C06B96DB
:102E3000E3E03FC60E94600B1092FA011092330249
:102E400087E0E1E9F1E0DF011D928A95E9F7E8CF3B
:102E5000819FC001112485509E4F2ADE882339F3BB
:102E60008091330290E00196877099278093330216
:102E7000D8CFA6E0B0E0EEE3F7E1FEC50E94330450
:102E80008C018091A4019091A5018017910779F0A0
:102E900019821A820E943304682F49815A81792F3E
:102EA00080E090E060DF1093A5010093A4012696D6
:102EB000E4E0FEC51F920F920FB60F9211242F93DC
:102EC0003F934F935F936F937F938F939F93AF93B2
:102ED000BF93CF93DF93EF93FF93D091E900DF701F
:102EE0008091EC00C82FC17080FDC0E81092E9000D
:102EF0008091F000877F8093F00078940E94830B8C
:102F00001092E9008091F00088608093F000CD2B52
:102F1000CF70C093E900FF91EF91DF91CF91BF9106
:102F2000AF919F918F917F916F915F914F913F9161
:102F30002F910F900FBE0F901F9018951F920F9218
:102F40000FB60F9211242F933F934F935F936F937C
:102F50007F938F939F93AF93BF93EF93FF93809152
:102F6000E10082FF09C08091E20082FF05C08091EC
:102F7000E1008B7F8093E1008091DA0080FF24C024
:102F80008091D80080FF20C08091DA008E7F8093EE
:102F9000DA008091D90080FFAAC080E189BD82E17A
:102FA00089BD09B400FEFDCF81E08093F0018091DE
:102FB000E501811109C00E94C8020E946903809145
:102FC000E20084608093E2008091E10080FF1AC0FB
:102FD0008091E20080FF16C08091E2008E7F809396
:102FE000E2008091E20080618093E2008091D8004D
:102FF00080628093D80019BC85E08093F00183E063
:1030000080930F018091E10084FF30C08091E20045
:1030100084FF2CC080E189BD82E189BD99B5892FEB
:10302000817090FFFBCF9091D8009F7D9093D80046
:103030009091E1009F7E9093E1009091E2009F7E4D
:103040009093E2009091E20091609093E200909161
:10305000F101992309F451C094E09093F00190910B
:10306000F001943009F482E080930F018091E10037
:1030700083FF2CC08091E20083FF28C08091E10093
:10308000877F8093E10082E08093F0011092F1014C
:103090008091E1008E7F8093E1008091E2008E7F3D
:1030A0008093E2008091E20080618093E20042E040
:1030B00060E080E00E9437038091F0008860809398
:1030C000F00081E080930F0180930E01FF91EF915A
:1030D000BF91AF919F918F917F916F915F914F9130
:1030E0003F912F910F900FBE0F901F90189519BC14
:1030F0001092F0011092E50167CF9091E30097FDE7
:1031000002C0982FAACF93E0A8CF78941F921FB641
:103110001F9211248F939F93AF93BF938091E101EE
:103120009091E201A091E301B091E4010196A11D0B
:10313000B11D8093E1019093E201A093E301B0936C
:10314000E401BF91AF919F918F911F901FBE1F907F
:1031500018951F921FB61F9211248F939F93AF93C0
:10316000BF938091E001811113C08091E1019091A2
:10317000E201A091E301B091E4014196A11DB11DCE
:103180008093E1019093E201A093E301B093E40105
:10319000BF91AF919F918F911F901FBE1F90189567
:1031A000CDB7DEB7A6970FB6F894DEBF0FBECDBF82
:1031B00085B7806885BF85B7806885BF84B7877FFE
:1031C00084BF0FB6F894A8958091600088618093C1
:1031D0006000109260000FBE80E890E00FB6F89497
:1031E00080936100909361000FBE81E080930F0196
:1031F00081E395E090936B0180936A010E94C8027D
:103200000E9469038091E20084608093E2007894D8
:103210008091F0018823A1F01091E9001F70909136
:10322000EC00892F817090FD80E8182B1092E90046
:103230008091E80083FD0E94830B1F701093E900CA
:1032400082E084BD93E095BD9AEF97BD80936E00B8
:103250000E94A709811102C00E94E80A09E411E056
:10326000D8018D918D018F3F11F00E943305B1E09F
:1032700003351B07A9F703E511E04AE5E42E41E019
:10328000F42EF80181918F018F3F11F00E943305D8
:10329000E016F106B1F78AE0E3ECF1E0DF01282F58
:1032A0001D922A95E9F7E9EAF1E0DF011D928A957E
:1032B000E9F790E080E025D4833E9E4F21F40E9400
:1032C000A709811123C063EE7EEF90E080E047D430
:1032D00060E082E090E029D481E08093B30161E076
:1032E00083E090E022D460E074E184E090E037D4A1
:1032F0000E94E80A40E050E0BA018FE090E027D455
:1033000040E050E0BA0183E190E021D482E090E017
:10331000F0D38093B70184E090E0F3D39093B601AB
:103320008093B5010E94FF0EEFEFF6E721E0E15038
:10333000F0402040E1F700C000000E94FF0E8091A5
:10334000C30180FF07C06FEF7FEF90E080E007D4FC
:103350000E94220483E090E0CCD30E941A0880E00F
:1033600091E09093DD018093DC0111E001E0809118
:10337000F00130E4F32E853009F484C00E94FF0E82
:1033800098EBE92E91E0F92E23ECC22E21E0D22E0B
:10339000D601F70191918D9122EC31E02E173F0774
:1033A00009F47AC09817B1F3B12CD601AD906D0134
:1033B000F70171907F017A1411F1912C8824839484
:1033C0007A24872D882199F099A2BAA20E94330409
:1033D0009CA38BA30DA391E08A2D882109F490E092
:1033E0009EA349A15AA16BA17CA18DA1BCDC9394A1
:1033F000880CF7E09F12E5CFF7013197A082B394D4
:103400002AE0B212D2CF8FB7F8944091E1015091E7
:10341000E2016091E3017091E4018FBF40C08091AF
:10342000F001843019F11092E00188E190E00FB6CC
:10343000F894A895809360000FBEF092600083B767
:10344000817F846083BF83B7816083BF78948895D0
:1034500083B78E7F83BF0FB6F894A89580916000E4
:10346000886180936000109260000FBE0E94FF0E82
:10347000E3ECF1E0819181119DC2ADECB1E0AE17BA
:10348000BF07C1F78091F001853009F4C8CF0E94D1
:10349000600B0E94AA0472CF981386CFEADC86E004
:1034A000E4EDF1E0DE01119601900D928A95E1F7CD
:1034B0009090D501C090D601D090D701A090D801AE
:1034C000B090D9011092D6011092D7011092D80174
:1034D0001092D9018D2D8C2909F447C0E090D201BA
:1034E000F090D3010E9433049C012E193F09909162
:1034F000CD01992309F48DC225313105B0F19F3FEB
:1035000019F09F5F9093CD01CC2059F00E940305E4
:103510009FEF1C140CF491E0899F802D112480935F
:10352000D601DD2059F00E94030591E01D140CF036
:103530009FEF899F802D11248093D7018091D60120
:10354000882399F0F090D701FF2079F00E9423059D
:10355000882309F4B4C08093D6018F2D0E942305DF
:10356000882309F4AFC08093D7018A2D8B2909F4F1
:1035700047C0E090D001F090D1010E9433049C013B
:103580002E193F099091CE01992309F43DC22135AE
:103590003105B0F19F3F19F09F5F9093CE01AA20B3
:1035A00059F00E94E1049FEF1A140CF491E0899FF6
:1035B000802D11248093D801BB2059F00E94E10492
:1035C00091E01B140CF09FEF899F802D11248093B4
:1035D000D9018091D801882399F0F090D901FF207A
:1035E00079F00E942305882309F46FC08093D801E5
:1035F0008F2D0E942305882309F46AC08093D90186
:103600008091D501891117C08091D601882311F0CE
:10361000C81211C02091D701222311F0D2120BC081
:103620009091D901992311F09B1105C03091D801D7
:10363000332309F4DCC10E94B90486E0FE0131960F
:10364000A4EDB1E001900D928A95E1F70E94AA04E1
:103650009091C201891769F08093C2018FB7F894E5
:103660004091E1015091E2016091E3017091E40128
:103670008FBF8091F001843009F079CE83E0809390
:10368000E9008091E80082FF72CE8091E80090E02E
:1036900085FF05C00E94E7028823E9F091E0809150
:1036A000E8008B778093E800992309F460CEE981E4
:1036B000E150E331C8F5F0E0EF5EF14EC2C1109386
:1036C000D6014BCF1093D70150CF1093D80190CF94
:1036D0001093D90195CF80E2E82EF12CCE0101960E
:1036E0006C018091E80085FD0AC08091E8008B772D
:1036F0008093E8000E94E702882399F3CFCF80915E
:10370000F100D6018D936D01B1E0EB1AF10849F794
:10371000C5CF1A828CE08B8323C08A81823009F462
:103720006BC128F4813061F08FEF898319C0833039
:1037300049F18430C9F71B821C821D821E8210C091
:103740002FB7F8946091E1017091E2018091E3015B
:103750009091E4012FBF7BD16B837C838D839E830B
:10376000E091DC01F091DD01309709F400CE028494
:10377000F385E02D309709F4FACD60E2CE01019691
:103780000995F5CD2B81822F90E0FE013496245EC1
:103790008A30910528F7DC01AD53BE4F3C9131933F
:1037A00001962813F5CFDCCF8A81823019F085305D
:1037B000B9F2BACF6B817C818D819E8148D188E23C
:1037C00090E0B3D1CDCF4C816B818A810E94F10909
:1037D0009827892798279E838D83C2CF2D813E818C
:1037E0003227232732274C816B818A810E944A0924
:1037F000B7CF0E947009B4CFE0E1EA83B1CF1A835A
:1038000087EA89CF8A819B819827892798274C80CE
:10381000512C712C612C4C01B12CA12C1C01F7EA0C
:103820002F1AFDEF3F0A9E012F5F3F4F6901F12CD8
:10383000E12CC1018E0D9F1DA70170E060E04415D1
:1038400055056605770508F08BCF480D591D6A1D93
:103850007B1D473A51406105710558F44AD1D601A4
:1038600014968C93FFEFEF1AFF0A2FEFC21AD20AB9
:10387000E0CFF6011482F6CFEA80FB80FE24EF242D
:10388000FE244C80512C712C612C4701B12CA12CB1
:1038900037EAE31A3DEFF30AD12CC12CC7018C0D96
:1038A0009D1DA60170E060E044155505660577058D
:1038B00008F056CF480D591D6A1D7B1D473A5140EF
:1038C0006105710540F4E1E0F0E0EC0FFD1FEC0D47
:1038D000FD1D64812AD1BFEFCB1ADB0ADFCF0E9426
:1038E000AC0A3ECF84E08A833BCF4C80512C712CB4
:1038F000612CCA80DB80DC24CD24DC24F12CE12C7B
:10390000FE0131961F01812C912C5401C60189962C
:1039100084149504A604B70408F022CFF0E3CF1670
:10392000F2E0DF06E104F10490F4E3D0D101149653
:103930008C93FFEF8F1A9F0AAF0ABF0A2FEF221A4C
:10394000320A3FEFC31AD30AE30AF30ADFCFF101C9
:103950001482EFCF8C80912CB12CA12CCA80DB80FB
:10396000DC24CD24DC24F12CE12C412C512C32011F
:10397000C6018996481459046A047B0408F0F0CE05
:10398000A0E3CA16A2E0DA06E104F10440F4E1E0A3
:10399000F0E0EC0FFD1FE40DF51D6481C6D0BFEF14
:1039A0004B1A5B0A6B0A7B0AEFEFCE1ADE0AEE0AAD
:1039B000FE0ADECF8091EF01882309F463CDB0E1E8
:1039C000B9BDE2E1E9BD09B400FEFDCF8091D800A8
:1039D0008F7D8093D8008091E00082608093E0002A
:1039E0008091E00081FDFCCF0E94600B4BCD822BCB
:1039F000892B09F422CE1FCE88E290E07AD01B8278
:103A00001C821D828E83ACCE2B30310508F0C4CDD4
:103A1000F7CD2B30310508F074CDA7CD97FB072EDD
:103A200016F4009406D077FD08D04FD007FC05D0DF
:103A30003EF4909581959F4F0895709561957F4FC5
:103A40000895EE0FFF1F0590F491E02D099469276A
:103A50009627692778278727782708952F923F92FE
:103A60004F925F926F927F928F929F92AF92BF928E
:103A7000CF92DF92EF92FF920F931F93CF93DF933A
:103A8000CDB7DEB7CA1BDB0B0FB6F894DEBF0FBE97
:103A9000CDBF09942A88398848885F846E847D84E4
:103AA0008C849B84AA84B984C884DF80EE80FD80E6
:103AB0000C811B81AA81B981CE0FD11D0FB6F8945C
:103AC000DEBF0FBECDBFED010895AA1BBB1B51E1A8
:103AD00007C0AA1FBB1FA617B70710F0A61BB70B7E
:103AE000881F991F5A95A9F780959095BC01CD0123
:103AF0000895F999FECF92BD81BDF89A992780B5B6
:103B00000895A8E1B0E042E050E02FC0DC01A40F2E
:103B1000B51F4150504040F0CB01840F951F2E91AE
:103B200005D041505040D8F70895262FF999FECF7F
:103B300092BD81BDF89A019700B4021639F01FBA00
:103B400020BD0FB6F894FA9AF99A0FBE089503961D
:103B5000272FECDFEADF252FE9DF242FE7CF0196BF
:103B6000272FE4DFE2CFDC01CB01FC01F999FECF86
:103B700006C0F2BDE1BDF89A319600B40D924150F5
:103B80005040B8F70895FB01DC0104C08D9101900D
:103B9000801921F441505040C8F7881B990B0895B3
:103BA000F894FFCF670C8F0C3A0E8F0C3A0EC20CB4
:103BB000E30C3A0EE10DEE0D3011341126112C11EB
:103BC00038113C114011C412C412F912F9127D13BC
:103BD00097131E131E139C130714151415147C1130
:103BE000EE1184114F115311881157118C11981136
:103BF0006311E71167119C116B11A011C7116F11AF
:103C0000A411CE117411A911B1115B1190115F11A2
:103C100094117811AD11BD11D611E5114911801122
:103C2000F511891B8D1BD41BE31BEE1BF91B941B89
:103C3000941B941B941B941BFC1BFF1B021C3C1C21
:083C40006F1C721C751CAA1C0C
:103C48003F042F0921042A0925094209000001001F
:103C5800818283E200E900EA00B500B600B700CD32
:103C6800008301CC008A01920194012102230224DD
:103C7800022502260227022A02B300B4006F007050
:103C8800009F01CB019F02A0023534C6976694902D
:103C9800919293F5F6F73133323644227B49012766
:0A3CA80001AC007F049804B804008A
:00000001FF
