:100000000C94CC030C94E9030C94E9030C94E903DD
:100010000C94E9030C94E9030C94E9030C94E903B0
:100020000C94E9030C94E9030C94012A0C94BD2967
:100030000C940C2B0C94E9030C94E9030C94E90345
:100040000C94E9030C94E9030C94E9030C94E90380
:100050000C94E9030C94E82A0C94E9030C94E9034A
:100060000C94E9030C94E9030C94E9030C94E90360
:100070000C94E9030C94E9030C94E9030C94E90350
:100080000C94E9030C94E9030C94E9030C94E90340
:100090000C94E9030C94E9030C94E9030C94E90330
:1000A0000C94E9030C94E9030C94E903050109029B
:1000B000A10185020901A1000509190129081500FE
:1000C0002501950875018102050109300931158165
:1000D000257F95027508810609381581257F9501D0
:1000E00075088106050C0A38021581257F95017572
:1000F000088106C0C005010980A101850319012AF4
:10010000B700150126B700950175108100C0050CD8
:100110000901A101850419012AA002150126A002E6
:10012000950175108100C00660FF0961A101096297
:10013000150026FF00952075088102096315002629
:10014000FF00952075089102C005010906A101056F
:100150000719E029E7150025019508750181029529
:1001600001750881010507190029FF150026FF0008
:100170009506750881000508190129051500250156
:10018000950575019102950175039101C0FD377ABE
:10019000585A000004E6D6B44602002101160000B9
:1001A00000742FE5A3E0036101285D003D8889C646
:1001B0005436C3174FE4E629ADD26F68741AA8DA33
:1001C000E794360C08B074A5ECE75B945936C94146
:1001D000D4295B138ADCEF935328AA803333F2319E
:1001E0004D48F75370B957512D86F9056C3E0420E0
:1001F000C9FED26D44C7B8F5AF7A6F88B4F7744AB8
:1002000056D30B42B9074C2A41C394A38249921199
:10021000528911306CBB2199C2A8309DF7429ABC1B
:10022000EA093F5F8B0CBFD7F2301DF95CA324E4D1
:1002300014444F99E0B1301935C8BE561B254BE226
:10024000CDFC23139614DBC6CBE1CC14EF84EFF581
:100250007AB5831B062C14DEFD90C178CB8D237AF2
:1002600052C84E8A2EDAF8A102A33FE2E347A4E681
:10027000CAD80A56CF08780E1DCB70138861B56CAA
:100280004B7AB1ED389AFA7EFFC06720C2A9A0B5BB
:10029000BD016032BD0CA1E5618F4903D5295E1B0C
:1002A000050D00911E365BBB66B0DC1F1C2B637115
:1002B00036503229CD298E9273B8A9F594D6497259
:1002C0000328E18C598C4F10BA46C028AD24470E44
:1002D00075D099000086C81321FA3C6E420001C413
:1002E00002E20600001E2E174BB1C467FB0200009D
:1002F000000004595A010001005D043D0F220F0067
:10030000000200020059043D0F220F00000300010B
:10031000005E043D0F220F00000400020043043D74
:100320000F220F2808050001005F043D0F220F0077
:10033000000600020045043D0F220F0000070002E6
:10034000005B043D0F220F00000800010060043D27
:100350000F220F00000900020047043D0F220F0387
:10036000080A00020049043D0F220F03080B000297
:10037000004B043D0F220F03080C0002004D043D0A
:100380000F220F03080D0002004F043D0F220F0340
:10039000080E00020051043D0F220F03080F000257
:1003A0000053043D0F220F03081000020055043DC6
:1003B0000F220F03081100020057043D0F220F0304
:1003C000081200020061043D0F220F00001300021A
:1003D0000063043D0F220F00001400010065043D7E
:1003E0000F220F00001500000000008907641500AF
:1003F0000029001F0021002300250027002E001ED9
:100400000020002200240026002D0031002B001ABD
:100410000015001C000C0013003000140008001729
:1004200000180012002F002A00E000160009000B3F
:10043000000E0033002800040007000A000D000F22
:10044000003400350000001D0006000500100037D4
:1004500000E500E1001B00190011003600380052D1
:10046000003900E2002C002800904223525100E3A2
:100470000091412C002A00E60050004F0001003B93
:10048000003D003F004100430045003A003C003E73
:10049000004000420044004900010001004B0001FF
:1004A00000600062000100010052004A005F00612C
:1004B0000001000100010050004F0001005D00013B
:1004C0000001000100510001005C005E0001004CD1
:1004D000000000010001004D0059005B0001000117
:1004E0000001004E0062005A00630001000100019B
:1004F00000010001000100010001000100010001F4
:1005000000010001000100010001000100010001E3
:1005100000010001000100010001000100010001D3
:1005200000010001000100010001000100010001C3
:1005300000010001000100010001000100010001B3
:1005400000010001000100010001000100010001A3
:100550000001000100010001000100010000000194
:100560000001000100010001000100010001000183
:100570000001000100010001000100010001000173
:100580000001000100010001000100010001000163
:100590000001000100A5003B003D003F0041004379
:1005A0000045003A003C003E004000420044004943
:1005B000003900010001000100460048000100016F
:1005C000000100010001004700520001000100A9E4
:1005D00000B00055004A0050000100AA00A8000128
:1005E0000054004B004F004C0000000100010001CE
:1005F0000056004E00010001000100010057004DAF
:100600000051000100010001000100010001000192
:1006100000010001000100010001000100010001D2
:100620000009025B00030100A0FA090400000103B5
:100630000101000921110100012244000705810385
:100640000800010904010002030000000921110152
:100650000001222200070582032000010705030391
:10066000200001090402000103000000092111011A
:100670000001227B00070584032000011201000213
:1006800000000008603301000001010203011C03A7
:100690007600690061006C003A00660036003400A4
:1006A0006300320062003300630000001403530053
:1006B000690078007000610063006500360030005A
:1006C0000000200349006E00660069006E006900AA
:1006D0007400650020004D006F006E006B00650027
:1006E000790000000403090400000000000000007D
:1006F00000000000000000000000000000000000FA
:100700000000000000000000000000007E0F00D488
:10071000FFFFFFC70000007800000000000000009D
:100720002A2B28000000000000000000000000004C
:1007300000000029000000002C1E34202122243457
:100740002627252E362D3738271E1F202122232429
:1007500025263333362E37381F0405060708090AC5
:100760000B0C0D0E0F101112131415161718191A61
:100770001B1C1D2F3130232D350405060708090ADF
:100780000B0C0D0E0F101112131415161718191A41
:100790001B1C1D2F3130354C11241FBECFEFDAE06A
:1007A000DEBFCDBF11E0A0E0B1E0EAEEF8E602C0A6
:1007B00005900D92AC37B107D9F724E0ACE7B1E072
:1007C00001C01D92A33EB207E1F70E94332B0C94A7
:1007D0001F340C940000482F2091E104909198045C
:1007E00059E0291302C080E0089530E0529FF001E3
:1007F000539FF00D1124E756FB4F8181681306C00B
:100800008081481303C085818111EECF2F5F3F4F58
:100810002770E7CFE8EDF0E080818E7F8083109233
:10082000E2001092DA001092E100A0EEB0E08C91AC
:1008300081608C9380818F77808319BCA7EDB0E0B5
:100840008C918E7F8C9380818F7E80831092830425
:1008500008952091E4003091E50095E6A9012091EA
:10086000EC00822F817020FF06C08091E80080FF9D
:1008700006C080E008952091E80022FD1AC0809112
:100880008E04882389F0853089F08091EB0085FD06
:100890000FC02091E4003091E50042175307F9F2B0
:1008A0009150E1F684E0089582E0089583E0089590
:1008B00081E008958091900487FF13C08091E80043
:1008C00082FF06C08091E8008B778093E80004C027
:1008D00080918E048111F2CF089580918E04882337
:1008E000D9F38091E80080FFF8CF8091E8008E77FF
:1008F000ECCF982F9093E900242F762F50E08917A2
:1009000031F07091EC002091ED005091F00021FD4C
:1009100007C09F5F973071F78093E90081E00895E9
:100920003091EB003E7F3093EB003091ED003D7F46
:100930003093ED003091EB0031603093EB00709319
:10094000EC002093ED005093F0002091EE0027FD85
:10095000E0CF80E00895B0E0A0E0E1EBF4E00C949B
:100960006233C8EDD0E088818F7E8883E7EDF0E0C8
:1009700080818160808384E082BF81E080938304F2
:1009800088818E7F888302EE10E0F8011082109239
:10099000DA0081EEC82ED12CF601108288818F7783
:1009A000888388818068888388818F7D888319BC4B
:1009B00010928E0410928F0410928D0410928C0469
:1009C00090EEE92EF12CF70180818B7F8083888166
:1009D0008160888342E060E080E00E947904F60153
:1009E00080818E7F8083F801808181608083808117
:1009F00088608083F70180818E7F80838881806119
:100A00008883CDB7DEB7E8E00C947E33FC0180919B
:100A100096049091970486179707A0F061157105C9
:100A200029F49091E8009E779093E80090E061159A
:100A3000710551F4911108C08091E80082FF34C023
:100A400080E00895BC01F2CF80918E048823C1F12B
:100A50008530C1F18091E80083FD30C08091E800CD
:100A600082FDEACF8091E80080FFE1CF8091F30022
:100A70002091F200382F6115710519F028303105E9
:100A800058F091E02830310509F090E02091E8001D
:100A90002E772093E800CBCF81918093F1006150B5
:100AA00071092F5F3F4FE7CF80918E04882341F07B
:100AB000853041F08091E80083FFBECF81E008954A
:100AC00082E0089583E00895089587E797E790937B
:100AD00001088093000888E19AE00FB6F894A89581
:100AE000809360000FBE90936000FFCF2FB7F89403
:100AF00060917F04709180048091810490918204C0
:100B00002FBF08952FB7F89480917F0490918004AF
:100B1000A0918104B09182042FBF089580911801A3
:100B20000895E0E8F1E09191891303C0DF01119786
:100B30001C9291E0E638F907B1F708959C01FC0199
:100B400032969FEF80E04191461751F09F3F19F494
:100B5000411101C0982F8F5F8630A9F79F3F09F49C
:100B60000895290F311D97FD3A95F9016283089583
:100B7000A3E0B0E0EEEBF5E00C94683320917C0448
:100B800030917D0428173907A1F090937D0480935C
:100B90007C04E0917A04F0917B04309751F024E0DA
:100BA00029839B838A830084F185E02DCE01019601
:100BB00009952396E2E00C948433A3E0B0E0E3EEE1
:100BC000F5E00C946833209178043091790428176B
:100BD0003907A1F09093790480937804E0917A0426
:100BE000F0917B04309751F023E029839B838A8323
:100BF0000084F185E02DCE01019609952396E2E06F
:100C00000C948433E0917A04F0917B04309729F0BE
:100C10000190F081E02D0995089580E00895411537
:100C2000510511F0FA01099508950E9482059C0171
:100C300090916F0480917004982B21F030936C0494
:100C400020936B049091710480917204982B21F091
:100C500030936A0420936904E0917A04F0917B0454
:100C6000309749F082E080936D040680F781E02D93
:100C70008DE694E0099508958091680480FF0CC08A
:100C80006091160170E0759567957595679561158A
:100C9000710549F1862F089581FF06C06091160104
:100CA00070E075956795F3CF6091160182FD0BC0DA
:100CB000909167049923A1F060911501809116012C
:100CC000961738F0682F70E06038710500F38FE7F1
:100CD0000895899FC001112470E00E943733F4CF3A
:100CE00061E070E0D7CF81E0089580916804609161
:100CF0004B0470914C0480FF16C020911401269F74
:100D0000C001279F900D1124BC01769567957695BB
:100D100067956038710508F043C06115710509F4E5
:100D200041C0862F089581FF0BC020911401269F9A
:100D3000C001279F900D1124BC0176956795E9CFDE
:100D400082FF09C0809114019B01829FB001839FA3
:100D5000700D1124DECF209142042223D1F2909114
:100D6000130180911401482F50E0291748F0CB015E
:100D7000849FB001859F700D949F700D1124C9CF81
:100D8000289F90011124269FA001279F500D369F78
:100D9000500D1124692F70E0CA010E942333B9CF8E
:100DA0008FE7089581E00895282F35EB2303C001D4
:100DB000112497FF04C080589109892F0895805805
:100DC0009F4FFBCFCF92DF92EF92FF92CF93DF93B3
:100DD000EC01C0903704D0903804E0903904F090D2
:100DE0003A040E9476056C197D098E099F09643FBB
:100DF000714081059105F8F4C0923304D092340417
:100E0000E0923504F092360484EF91E0A0E0B0E087
:100E100080932F0490933004A0933104B093320454
:100E2000D0933F04C0933E04DF91CF91FF90EF90A9
:100E3000DF90CF9008950E947605609333047093FD
:100E40003404809335049093360482E390E0A0E06C
:100E5000B0E0DECFFC018481862351F49281992396
:100E6000B9F06923808583FF05C081E061110FC05F
:100E700080E00895892F8F7092959F70982B862F10
:100E80008F7062956F70682B81E09613F1CF089593
:100E900081E0FDCFDC016091290480912A04962F26
:100EA000891301C00895292F30E0F901EE0FFF1FCB
:100EB000EF5DFB4F408151814A175B07A1F487E04A
:100EC0008A9FA0018B9F500D112440585C4F81E0F8
:100ED000FA0184839613E6CF2F5F3F4F23703327A9
:100EE0002093290408952F5F3F4F922F9370D8CFFE
:100EF00010927E0310927D03E0E8F3E0858181117A
:100F000002C014821682379683E0E83BF807B1F7F7
:100F10000895B0E0A0E0EFE8F7E00C9460338FEFC5
:100F20009FEF4430510508F469C04091560341FBDE
:100F3000882780F990E0880F991F42FB002700F96D
:100F400010E0000F111F000F111F802B912B40FB91
:100F5000CC24C0F8D12C8C299D2943FB222720F9D1
:100F6000C22FE0E0DE2F53E0CC0FDD1F5A95E1F7F2
:100F70008C2B9D2B44FBAA27A0F9B0E0E4E0AA0F3C
:100F8000BB1FEA95E1F78A2B9B2B45FBEE27E0F987
:100F9000F0E0A5E0EE0FFF1FAA95E1F78E2B9F2B47
:100FA00046FB222720F930E0B6E0220F331FBA9526
:100FB000E1F7822B932B47FB222720F930E036956F
:100FC000322F222737952795822B932B2091570379
:100FD000322F3170F32EE82EF92A26952170B22E89
:100FE000BB0CA82EBF28C501BB0CAA0BBB0BFB0179
:100FF00080839183A283B38390E080E0CDB7DEB796
:10100000EAE00C947C33E3E4F4E0848195812AE007
:1010100030E0B9010E94233360930E0186818093F2
:101020000D01828580931401848580931301868548
:101030009785B9010E94233360930C0180898093C6
:101040000B0182898093160184898093150108958C
:1010500080914304909144049093100180930F0178
:101060000895EDE0F2E090E080E06EEF78E245E296
:1010700059E224E738E277836683518740873387D4
:10108000228797878687019670968830910599F711
:10109000089581152CE7920741F420912D04309199
:1010A0002E04232B11F490E080E0089580E0089551
:1010B000F894E82FE295EF70F0E031A1282F2F701F
:1010C00081E090E001C0880F2A95EAF7982F90956B
:1010D000932391A392A1892B82A378940895909150
:1010E000560392FF10C041E0282F2471243009F0EC
:1010F00040E031E0282F2871283009F030E0431714
:1011000011F02CE0822793FF10C041E0282F2471BA
:10111000243109F040E031E0282F2871283109F00E
:1011200030E0431711F02CE082273091570330FF55
:1011300010C051E0282F2171213009F050E041E02A
:10114000282F2871283009F040E0541711F029E0C9
:10115000822731FF10C041E0282F2171213109F091
:1011600040E031E0282F2871283109F030E04317A2
:1011700011F029E0822794FD877E08958238910539
:10118000B9F1B0F48133910509F47DC048F4893296
:10119000910509F46DC08A32910509F47BC0089568
:1011A0008533910509F45FC08933910509F10895EC
:1011B000833E9105D9F138F4803E910529F1823EB4
:1011C000910579F10895863E9105D9F1873E910503
:1011D00009F43EC0843E910541F52091570321FF5B
:1011E00024C08091560384FD19C087EE90E00895D5
:1011F00020915603237009F05AC02091570323FF12
:1012000014C089E290E008952091560320FD38C073
:101210003091570330FF09C024FF43C090E080E0C5
:1012200008952091560322FDF7CF0895209156038B
:1012300022FD3AC03091570330FD39C024FFF5CF6D
:10124000EDCF2091560323FFF0CF24FDE7CFCDCF84
:101250002091560323FD2EC03091570331FFEECF6E
:1012600084EE90E008952091560325FFDECFC9CF8C
:101270002091560325FD21C02091570323FFD5CF90
:1012800089E390E0D2CF2091560326FFCECF8AE2A9
:1012900090E008952091560326FFC7CF81E390E0A8
:1012A000089583EE90E0089582EE90E0089580EE38
:1012B00090E0089586EE90E0089585E390E008952B
:1012C0001F93CF93DF930E94BE08EC01C11580E508
:1012D000D807F0F5C11580E4D80708F09CC0C03EDF
:1012E000D10520F5CD3CD10508F082C0C83AD10522
:1012F00078F4C53AD10508F073C0C130D10519F1B1
:10130000209709F1C430D105F0F4D0E0C0E01BC053
:10131000C33CD105D0F7C85AD0E0CC0FDD1FCA5D61
:10132000DE4F0990D881C02DD4640DC0C11580E274
:10133000D80708F0D1C0C11581E0D80708F05AC01D
:10134000C83ED10510F7CE01DF91CF911F910895CE
:10135000C03682E5D80718F5C03482E5D80708F012
:101360006BC0C03282E5D80708F05FC0C11582E5C6
:10137000D80708F497C02C2F2695269580E2289F41
:10138000900111248C2F8370C1E0D0E002C0CC0FFB
:10139000DD1F8A95E2F7C22BD32BDD68D4CFC03A8C
:1013A00082E5D80760F4C03882E5D80708F459C050
:1013B000CF71D0E0DC2FCC27C46FD06AC4CFC03C43
:1013C00082E5D80708F462C0C03E82E5D80708F07D
:1013D0009CCFDC2FCC27CC27DF71C06FD06AB3CF76
:1013E000C55AD0E0CD5DDE4FC881D0E0D064ABCF30
:1013F000D065A9CF8D2F0E946F08182FCE01992795
:101400000E94BE08C12FD0E0DC2FCC27CC27DF7193
:10141000C82BD92B98CFCE0199270E94BE08CC2784
:10142000DF70C82BD92BD06A8ECFCF71D0E0DC2FE4
:10143000CC27C16FD06A87CF2C2F26952695277091
:1014400080E2289F900111248C2F8370C1E0D0E0AE
:1014500002C0CC0FDD1F8A95E2F7C22BD32BDC68CC
:1014600072CF2C2F26952695277080E2289F900119
:1014700011248C2F8370C1E0D0E002C0CC0FDD1F9F
:101480008A95E2F7C22BD32BDA685DCF8C2F8F7150
:101490000E946F08C82FD0E0DC2FCC27CC27DF714B
:1014A000D06251CF8C2F8F710E946F0855E0D69576
:1014B000C7955A95E1F7CF70D0E0DC2FCC27282FC5
:1014C00030E084FF05C044E0220F331F4A95E1F766
:1014D000C22BD32BD06937CF8D2F8F710E946F080D
:1014E000182FCE0199270E94BE08C12FD0E0DC2F13
:1014F000CC27CC27DF71C82BD92BD2CF8091C0014C
:10150000882331F01092C0011092BF011092BE01E9
:101510000895CF93C82F8091570382FF0CC080910C
:10152000C0018C1741F00E9482059093BF01809307
:10153000BE01C093C001CF9108959091C001292FA1
:10154000282361F0809589238093C001882339F096
:101550000E9482059093BF018093BE01089590E0A0
:1015600080E0F8CF80959091E20498239093E20474
:101570000895809590915803982390935803089567
:1015800090915803892B8093580308951092B501C8
:101590001092B4011092B301089580914504909186
:1015A0004604892B89F00E9482052091BE0130916A
:1015B000BF01AC01421B530B81E0209145043091E7
:1015C00046044217530708F480E081700895909113
:1015D000B201292F282321F0809589238093B2011D
:1015E00008958091E10490919804981301C00895A2
:1015F0008F5F8770FACF292F9A3078F5873068F59A
:1016000090E037E0239F800D911D1124682F6770B3
:1016100023E0969587952A95E1F7FC01EE0FFF1FD1
:10162000E80FF91FE257FE4F50E040E080E02191C3
:1016300030E0062E02C0369527950A94E2F7217015
:101640003327042E01C0220F0A94EAF7822B4F5F42
:101650005F4F4330510559F7089580E00895292FD1
:101660009A3098F5873088F590E037E0239F800D19
:10167000911D1124282F277041E001C0440F2A95A5
:10168000EAF723E0969587952A95E1F7FC01EE0F9E
:10169000FF1FE80FF91FE257FE4F30E020E070E037
:1016A0005191DF011197CB01022E02C096958795CB
:1016B0000A94E2F7817081958527842385278C938E
:1016C0002F5F3F4F2330310559F708958093D101A3
:1016D00008959091D10121E030E0F90101C0EE0FB1
:1016E0008A95EAF7D90102C0AA0FBB1F6A95E2F7F3
:1016F000EA2B01C0220F4A95EAF7892F8E23E813BF
:1017000005C0292B822F0E94660B0895209529235E
:10171000F9CF21E030E001C0220F8A95EAF7209549
:101720008091D10182230E94660B08959091B501AA
:10173000809589238093B501282F277069F4891734
:1017400059F09091570392FF07C08695869586952C
:101750000E94890B0E94C60A089521E030E001C072
:10176000220F8A95EAF78091D101822B0E94660BA5
:1017700008959091570392FF10C098E0899F9001BF
:101780001124622B6093B5010E94AD0B0E9482056B
:101790009093B4018093B30108950E94AD0B089516
:1017A0008093D001089592959F70963091F058F4EF
:1017B000925F9F70923058F4803F19F030F4883E69
:1017C00030F481E008959A5FF4CF843FD1F380E054
:1017D0000895883EB0F3813FD1F7F3CF662309F433
:1017E0005DC08D3C41F40E94750681958093700424
:1017F0000E94150608958E3C19F40E947506F6CFD6
:101800008F3C31F40E947506819580936F04F0CF70
:10181000803D19F40E947506F8CF893D29F40E9495
:101820003C0680937104E4CF8A3D21F40E943C067B
:101830008195F7CF8B3D31F40E943C0681958093D2
:101840007204D6CF8C3D19F40E943C06F8CF9FE27B
:10185000980F983070F4815D990B21E030E001C061
:10186000220F8A95EAF780916E04822B80936E0492
:10187000BFCF8D3D31F4809168048160809368040E
:10188000B7CF8E3D21F4809168048260F7CF8F3D01
:1018900009F0AECF809168048460F0CF40916F046E
:1018A0008D3C59F48091700487FF0DC01092700434
:1018B00041110BC01092420408C08E3C81F480910B
:1018C000700418169CF3442381F080917104909168
:1018D0007204892B09F08CCF1092670489CF8F3C5A
:1018E00049F447FFF0CF10926F048091700481118A
:1018F000ECCFE0CF803D19F41416ACF3E4CF909117
:101900007104893D29F41916F4F610927104DBCFA5
:101910008A3D19F497FFD7CFF8CF909172048B3D91
:1019200029F497FFD0CF10927204CDCF8C3D19F4DB
:101930001916CCF3C8CF9FE2980F983090F4815DD0
:10194000990B21E030E0B90102C0660F771F8A953C
:10195000E2F7CB01809590916E04892380936E0409
:10196000B2CF8D3D31F4809168048E7F80936804FE
:10197000AACF8E3D21F4809168048D7FF7CF8F3DF3
:1019800009F0A1CF809168048B7FF0CF9C013A953C
:1019900021153F4150F5FC01EE27F170BC0166278F
:1019A0007270AC01442754709C012227387094FF58
:1019B0000EC080E1EF2B09F480E0672B09F0806214
:1019C000452B09F08064232B89F08068089581E01D
:1019D000EF2B09F480E0672B09F08260452B09F0BA
:1019E0008460232B19F08860089580E008950F9398
:1019F0001F93CF93DF938B01EA0190918E04943073
:101A000061F58093E9008FEF9091E800815095FD9A
:101A100006C095ED9A95F1F700008111F5CF809100
:101A2000E80085FF1AC00E942904811111C080912D
:101A3000E80085FD06C08091E8008E778093E8007D
:101A4000F2CFF80181918F018093F100219779F70E
:101A50008091E8008E778093E800DF91CF911F910D
:101A60000F91089543E050E0BC0184E00E94F70C20
:101A7000089546E050E0BC0184E00E94F70C089510
:101A8000CF93DF93EC0148E050E0BC0181E00E947D
:101A9000F70C88E0FE01A4E8B4E001900D928A956D
:101AA000E1F7DF91CF910895019708F40895EFE9E8
:101AB000FFE03197F1F700C00000F6CFCF93C82FB9
:101AC0006FEF811168EA84E290E00E94E3336FEFE8
:101AD000C11162EB85E290E00E94E3336FEFC11128
:101AE00069E486E290E00E94E333CF910895CF93BA
:101AF000DF93CCE6D3E060E0CE010E94E333219691
:101B0000C11584E0D807B9F7DF91CF9108951F93ED
:101B1000CF93DF93122F8430E0F46A30D0F4473053
:101B2000C0F4C42FD0E0CC0FDD1F9EE0699FC00D34
:101B3000D11D11249CE8899FC00DD11D1124632F54
:101B4000CE0188960E94E333612FCE0189960E94D0
:101B5000E333DF91CF911F91089584E290E00E94DA
:101B6000C533883A89F485E290E00E94C533823B10
:101B700059F486E290E00E94C53391E0893409F07F
:101B800090E0892F8170089580E0FCCF0F931F9320
:101B9000CF93DF93843030F56A3020F5473010F56D
:101BA000C42FD0E0CC0FDD1F2EE0629FC00DD11DF1
:101BB00011243CE8839FC00DD11D1124CE018896CD
:101BC0000E94C533082F10E0102F0027CE01899600
:101BD0000E94C5339801282BC901DF91CF911F9135
:101BE0000F91089590E080E0F8CF462F2091F70103
:101BF0003091F801232B99F4703F39F4603F79F468
:101C00008091F9019091FA0108957A3040F467309B
:101C100030F4843020F4672F0E94C60D089590E0C0
:101C200080E00895CF92DF92FF920F931F93CF939E
:101C3000DF936C010091D1018091D001082BC3E0AA
:101C4000D0E010E0FC2EC8010C2E02C095958795BF
:101C50000A94E2F780FD0CC02197A0F7F12C8F2D9C
:101C6000DF91CF911F910F91FF90DF90CF9008955A
:101C7000B6018C2F0E94F50D0E946009019761F357
:101C8000EECFCF93DF93EC010E94120EBE010E94B3
:101C9000F50D0E946009DF91CF910895FC018481C8
:101CA000882371F087819085009729F00E94600950
:101CB0000E94D30B0895808191810E94410EF8CF3C
:101CC00080E00895A6E0B0E0E8E6FEE00C9467331B
:101CD00049835A8349815A819923A1F0222391F0A3
:101CE000CA010E94120E182F682F89819A810E94C2
:101CF0002F0B69817A81812F0E94F50D2696E3E0F2
:101D00000C948333CA010E94FB0A182FF2CFFC0106
:101D1000262F87819085009741F44081518162810F
:101D20007381848195810E94620E08950F931F93A1
:101D3000CF93DF9303E414E0C8E5D2E0CE010E9424
:101D4000C533F80161918F01681719F0CE010E9427
:101D5000E3332196CC37F2E0DF0781F7DF91CF91B3
:101D60001F910F9108950F931F93CF93DF9303E477
:101D700014E0C8E5D2E0CE010E94C533F80181939A
:101D80008F012196CC37F2E0DF07A9F7CFEFD2E041
:101D9000FE0185919491009711F0FC0109952C9614
:101DA000F3E0CB3FDF07A1F7DF91CF911F910F91B8
:101DB00008959B01883070F49AE0899FB001112446
:101DC00064587D4F4AE050E0C9010E94B53390E06D
:101DD00080E008958FEF9FEF0895AAE0B0E0E3EF71
:101DE000FEE00C9468339C0137552F3F310509F014
:101DF00068F4BE016F5F7F4F0E94D90E892B31F4CA
:101E000089859A852A96E2E00C94843380915B045C
:101E100090915C04F7CF9091570392FB222720F911
:101E2000281779F080FB92F990935703609156033D
:101E30007091570384E090E00E94013482E00E9498
:101E4000960B0895DA019C012E5F3F4FF9014591F1
:101E50005491F90125913491A217B30758F0FC0170
:101E60003496859194910E94A5330E94960E90E03D
:101E700080E008958FEF9FEF0895DB01FC0132961B
:101E8000259134914217530758F0FC01349665911F
:101E90007491A901CD010E94A53390E080E00895DE
:101EA0008FEF9FEF0895AAE0B0E0E9E5FFE00C9422
:101EB00060330EED12E08CE1E82E83E0F82E97E01F
:101EC000B92E2DEDC22E22E0D22EAA24A3944AE0F0
:101ED00050E0B701CE0101960E94B533F801389663
:101EE000DF018B2D1D928A95E9F789819A81D801AE
:101EF00011969C938E938F8112968C9312978D815D
:101F000013968C931397888514968C9314978985D0
:101F100015968C9315978B819C8117969C938E9325
:101F2000169718961C9218978A8587FF3CC01E96B4
:101F30001C921E921D9780FF03C0D8011896AC9288
:101F400081FF04C0F80190859260908782FF07C0EE
:101F5000D80118969C911897946018969C9383FFCB
:101F600004C0F80190859860908784FF07C0D8016D
:101F700018969C911897906118969C9385FF04C0C1
:101F8000F801808580628087FAE0EF0EF11C015F26
:101F90001F4F8CE6E81683E0F80609F098CF2A96E2
:101FA000EAE00C947C33F801D686C586C4CFAAE05B
:101FB000B0E0EDEDFFE00C946233EDE8F2E080E597
:101FC000DF011D928A95E9F7E0E8F3E088E3DF019D
:101FD0001D928A95E9F78DE8C82E82E0D82E7F0100
:101FE0000CEC12E0F701D182C0824AE050E0B80167
:101FF000CE0101960E94B53388E0FE013196D601EC
:1020000001900D928A95E1F789859A85D7011396FB
:102010009C938E931297BAE0CB0ED11CE7E0EE0EA4
:10202000F11C065F1F4F0C31F3E01F07D9F62A960B
:10203000E8E00C947E33AAE0B0E0E1E2F0E10C9439
:102040005F338E010F5F1F4F8AE0F80111928A956E
:10205000E9F78CE5C82E81E0D82EF12CE12CAA24DA
:10206000A394B12CF60181916F018F3F09F443C015
:10207000F894E82FE295EF70F0E021A18F70A501B0
:1020800002C0440F551F8A95E2F7CA01922F982B80
:1020900091A392A18095892382A3789400C0E6E65B
:1020A000F1E0912C31E021912F3F09F44CC0A22F97
:1020B000A295AF70B0E090968C9190E02F7002C026
:1020C000959587952A95E2F780FD3DC0832F982A44
:1020D000330F51E0ED36F50731F7F6013197808186
:1020E0008F3F11F00E94580880EA8A95F1F7F801B5
:1020F000EE0DFF1D9082EFEFEE1AFE0AFAE0EF16EA
:10210000F10409F0AFCF4AE050E0B80186EC91E06D
:102110000E949833892BD9F08AE0F801A6ECB1E04F
:1021200001900D928A95E1F781E08093C5010E94AC
:1021300082059093C4018093C30110E0812F2A96F9
:10214000EBE00C947B3380E0C2CF10E021C0109113
:10215000C501112391F3E090C301F090C4010E94E6
:1021600082058E199F09059740F34AE050E066EC1E
:1021700071E08DEE91E00E949833892B31F38AE073
:10218000E6ECF1E0ADEEB1E001900D928A95E1F759
:102190001092C501D3CFCF9380915803C091E20430
:1021A000C82B8091C0018823E9F08091450490916B
:1021B0004604892B29F00E94CD0A81110E947E0AD3
:1021C0008091C001C82B20E080E891E0FC013191B2
:1021D000CF0131112F5FF1E086389F07B9F7211148
:1021E0000E947E0A80913B0480958C2390913C0450
:1021F000892B80937E0148E050E066EB71E08EE72A
:1022000091E00E949833892BA9F088E0EEE7F1E095
:10221000A6EBB1E001900D928A95E1F7E0917A0486
:10222000F0917B04309731F00280F381E02D8EE74E
:1022300091E00995CF910895CF93DF93EC014A8502
:102240005B856E857F850E940F068B810E94B20A96
:102250008C810E94B90A0E94CB1086E0FE01119287
:102260008A95E9F7DF91CF910895CF93DF93EC0141
:102270008D8181FD14C082608D838091E2049B81F9
:10228000892B8093E2048C810E94C00A0E94CB10AB
:10229000488559856E857F85CE010E940F06109274
:1022A0007704109276048D8180FD03C0CE010E94D8
:1022B0001C11DF91CF91089580911101877F809348
:1022C000110182E00E94B20A8091110184FF06C0D0
:1022D0008F7E8093110182E00E94C00A80911101DB
:1022E00085FF06C08F7D8093110180E20E94C00AA5
:1022F0000E94CB100895CF9310925803C6E0E0E8F7
:10230000F1E0DF018C2F1D928A95E9F790E080E0E3
:102310000E94DD0590E080E00E94B8051092E20482
:102320000E94CB10EDE6F4E0DF011D92CA95E9F7BB
:102330001092420410926704109268040E941506DD
:10234000CF910895AAE2B0E0E8EAF1E10C94673396
:1023500080E994E02091F100DC012D93CD01B4E0FF
:1023600088399B07B9F780919104833009F472C0D2
:10237000B8F4813009F449C0823009F4B7C08091C3
:10238000E80083FFA2C280919004909191049A305A
:1023900008F09BC2E92FF0E0EF5DFB4C0C944B334F
:1023A0008A3009F492C08B3009F471C0893039F752
:1023B00080919004813219F7809194049091950452
:1023C000009711F00297D9F68091E800877F8093FB
:1023D000E8008091E80082FF38C09091F30080917E
:1023E000F200029731F48091F100813011F08630D3
:1023F00021F48091F100809318018091E8008B779F
:102400008093E8000E945A04BACF80919004813AE8
:1024100009F0B5CF8091E800877F8093E800809134
:10242000940490919504892B61F468E084E894E029
:1024300070E00E9406058091E8008B778093E800A9
:102440009ECF60E090E080E0F3CF80918E04811118
:10245000C0CF95CF80919004813A09F090CF8091C0
:10246000940490919504892B09F089CF8091E8001C
:10247000877F8093E8008091E80080FFFCCF809107
:1024800019018093F1008091E8008E77B9CF809197
:102490009004813209F073CF809194049091950457
:1024A000892B09F06CCF8091E800877F8093E8004A
:1024B0000E945A0481E090919204911101C080E041
:1024C000809319010E947B115ACF80919004813230
:1024D00009F055CF8091E800877F8093E8000E9443
:1024E0005A04809193048093170149CF80919004FE
:1024F000813A09F044CF8091E800877F8093E8001B
:102500008091E80080FFFCCF80911701BACF80381E
:1025100099F0823809F0D9C1809194048F70873086
:1025200008F0D3C18093E9008091EB0085FB8827F8
:1025300080F91092E90006C080918C0490918D047E
:10254000911182609091E800977F9093E8008093CA
:10255000F1001092F1008091E8008E77B2C18823DB
:1025600009F4A0C1823009F0B0C1809192048111B8
:10257000A3C1809194048F702FEF280F263008F0AC
:10258000A4C18093E9002091EB0020FF95C1933016
:1025900031F48091EB0080628093EB008DC19091CB
:1025A000EB0090619093EB0021E030E001C0220F3E
:1025B0008A95EAF72093EA001092EA008091EB00F6
:1025C0008860EACF811181C1109192041F778091B8
:1025D000E3008078812B8093E3008091E800877F7F
:1025E0008093E8000E945A048091E80080FFFCCFAD
:1025F0008091E30080688093E30082E0111183E022
:1026000080938E0462C18058823008F05EC12091B0
:102610009204309193042C3DE3E03E07A1F583E062
:102620008A838AE289834FB7F894DE01139620E00B
:102630003EE051E2E32FF0E050935700E49120FF99
:1026400003C0E295EF703F5FEF708E2F90E0EA30AD
:10265000C0F0C7968D939D932F5F243159F74FBFDC
:102660008091E800877F8093E8006AE270E0CE0105
:1026700001960E9406058091E8008B778093E80020
:1026800024C1C096E7CF8091940490919504432F84
:1026900055274330510509F44AC078F541305105BA
:1026A00009F485C08BE590E0E1E2F6E042305105A7
:1026B00009F00BC12091E800277F2093E8002091CA
:1026C0009604309197048217930708F49C0140E028
:1026D0002115310509F070C041116EC08091E800EC
:1026E00082FDC9CF80918E04882329F2853019F2AA
:1026F0008091E80083FFF2CFBECF4132510509F44B
:1027000047C04232510509F0E0C08330910508F01E
:10271000DCC0FC01EE0FFF1FE059FE4F0190F0817D
:10272000E02D83599E4FDC018C9190E01DC0332732
:1027300021303105E9F02115310579F022303105DC
:10274000F9F02330310509F0C0C0EEE8F6E0E4917D
:102750008E2F90E0EEE8F6E007C0E4EEF6E0E491BC
:102760008E2F90E0E4EEF6E0009709F4AEC0A2CF21
:10277000E2ECF6E0E4918E2F90E0E2ECF6E0F4CFAC
:10278000ECEAF6E0E4918E2F90E0ECEAF6E0ECCF94
:102790008330910508F099C0880F991FFC01EA5811
:1027A000FE4F0190F081E02D89E090E083CF82E13F
:1027B00090E0ECE7F6E07ECF80918E04882309F468
:1027C0005ACF853009F457CF8091E80083FD53CF6D
:1027D0008091E80082FD82CF8091E80080FF78CF71
:1027E0009091F3008091F2002115310519F08830A5
:1027F000910550F041E0089709F040E08091E80031
:102800008E778093E80064CF44914093F100319635
:10281000215031090196E8CF803809F056C08091E7
:10282000E800877F8093E80080918F048093F10017
:1028300092CE81114AC010919204123008F045C026
:102840008091E800877F8093E80010938F040E94B6
:102850005A04112311F084E005C08091E30087FD44
:10286000FACF81E080938E0442E061EC81E00E9427
:10287000790442E261EC84E00E94790442E261EC76
:1028800082E00E94790442E260EC83E00E947904D5
:1028900080918E04843021F081E080931A0115C06C
:1028A00082E0FBCF80919204813079F481E0933013
:1028B00009F080E080938D041092E9008091E80097
:1028C000877F8093E8000E945A048091E80083FF8C
:1028D0000AC08091E800877F8093E8008091EB0038
:1028E00080628093EB00AA96E3E00C948333E3E4E8
:1028F000F4E0128E138E8FEA90E09183808325E0BE
:10290000248F88E893E1938382838AE090E0958323
:10291000848344E150E05783468348E050E0518788
:102920004087938782876EE170E075876487978719
:10293000868780E590E0918B808B538B428B48E2B9
:1029400050E0558B448B42E350E0578B468B48EC6C
:1029500050E0518F408F158E178E168E91A380A355
:1029600022A30E94960E0E947B1110925703109290
:102970005603E7E5F3E0808184608083609156032D
:102980007091570384E090E00E9401340E94B30EDE
:102990000895AEE1B0E0EFECF4E10C945D33A0906B
:1029A0002D04B0902E0481E090E090932E0480934B
:1029B0002D0481EFC82E83E0D82E00E0760110E0D0
:1029C00015C0F40125913491472D612F802F0E946D
:1029D000870D82E0880E911C7394E7E07E12F1CFA0
:1029E000FEE0EF0EF11C1F5F1A3019F04701712C49
:1029F000E8CF0F5F8CE8C80ED11C0430F9F60E94B6
:102A000077141A8219821C821B821E821D821886EC
:102A10001F8288EC90E09A8789870CE712E04AE0F1
:102A200050E0B801CE0101960E940734065F1F4FA7
:102A30000C3CE2E01E0799F77E01FBE0EF0EF11C73
:102A40008AE0F70111928A95E9F74AE050E0B8016F
:102A5000C7010E940734065F1F4F0C31F3E01F07C8
:102A6000A1F77E0185E1E80EF11C8AE0F7011192E1
:102A70008A95E9F78FEF9FEF9A8F898F87E08E8F86
:102A80004AE050E0B801C7010E940734065F1F4FBB
:102A90000C36F3E01F07A1F7B0922E04A0922D048C
:102AA0006E96EDE00C94793380E00E945E0D60E05C
:102AB00087E290E00E94E3330E94C9140E94770DE0
:102AC00081E00E945E0D0895CF92DF92EF92FF9217
:102AD0008FEF9FEF4430510508F46CC0FB01C080BC
:102AE000D180E280F3800E947B1180915603C0FA6E
:102AF00080F9B701A601769567955795479540FBF4
:102B000081F9B701A60122E076956795579547951B
:102B10002A95D1F740FB82F9B701A60133E07695FB
:102B20006795579547953A95D1F740FB83F9B701DB
:102B3000A601E4E07695679557954795EA95D1F714
:102B400040FB84F9B701A601F5E0769567955795A6
:102B50004795FA95D1F740FB85F9B701A601A6E0A4
:102B60007695679557954795AA95D1F740FB86F9D5
:102B7000B701A601B7E07695679557954795BA9541
:102B8000D1F740FB87F98093560380915703D0FA21
:102B900080F9D1FACC24C0F8C0FA81F980935703A8
:102BA000609156037091570384E090E00E940134D5
:102BB00090E080E0FF90EF90DF90CF9008950E942A
:102BC0007B112FEF84E39CE0215080409040E1F79F
:102BD00000C0000088E19AE00FB6F894A8958093B1
:102BE00060000FBE90936000FFCF882321F00E9409
:102BF000B20A0E94CB100895882339F09091E20424
:102C0000982B9093E2040E94CB100895882321F022
:102C10000E94B90A0E94CB100895882321F00E94D7
:102C2000C00A0E94CB100895882381F19CEF980F71
:102C3000913A28F40E9491050E94CB10089590E2E9
:102C4000980F983050F4877091E001C0990F8A95E1
:102C5000EAF7892F0E94B90AEFCF9BE5980F9330CE
:102C600028F490E080E00E94DD05089598E5980F33
:102C70009B3128F490E080E00E94B805089593E32A
:102C8000980F933118F460E00E94EE0B0895FF92C4
:102C90000F931F93CF93DF93F82E00914004109170
:102CA00041040115110509F449C010923F04109226
:102CB0003E0410923B0410923C04D8011696CD912C
:102CC000DC919E013A9521153F4108F4D07ED1E078
:102CD000C11101C0D0E0D8011996ED91FC911A976D
:102CE000309731F01B966D917C9180E00995D82347
:102CF000DD2339F08CEF8C0F813A30F58C2F0E9458
:102D00009105FF2099F0E0914004F0914104808505
:102D100084FD0CC080913D04882341F08081918125
:102D20009C01215031092F333E47A0F00E94CB1067
:102D3000109241041092400410923D04C801CDB796
:102D4000DEB7E5E00C9481330E94CB108C2F0E94FB
:102D50001416D7CF0E94E206E9CFCF93DF93EC01A0
:102D60000E941416CE010E94C60C9E01205E3109FD
:102D70002830310510F0CD2B29F40E940616DF9182
:102D8000CF9108950E94F515FACFCF93C82F8823CD
:102D9000A1F08CEF8C0F813A90F4E0E8F1E08191A2
:102DA000C817E9F181E0E638F807C9F76C2F8EE71C
:102DB00091E00E949E050E94CB10CF91089580E281
:102DC0008C0F883048F4C77081E001C0880FCA9525
:102DD000EAF70E94C00AEFCFEBE5EC0FE33040F4D6
:102DE000F0E0ED5DFE4F808190E00E94DD05E5CFD3
:102DF000E8E5EC0FEB3150F4F0E0EE0FFF1FEA5D79
:102E0000FE4F808191810E94B805D7CF83E38C0F5C
:102E1000833198F661E08C2F0E94EE0BCECF8C2F81
:102E20000E9491050E94CB10C1CF1F93CF93DF93D7
:102E3000182FEB010E94C516209739F4812F0E94AC
:102E40001416DF91CF911F9108958FE99FE00197AC
:102E5000F1F700C000002197EFCF609163047091FB
:102E60006404893321F060916104709162040E94CE
:102E700015170895B0E0A0E0E0E4F7E10C946033AA
:102E8000FC018AE0A82EDF012D918D012223B9F1EA
:102E9000213009F04EC08181813039F48F010D5FFE
:102EA0001F4F82810E942D1708C0823041F48F018C
:102EB0000D5F1F4F82810E94C516F801E4CF833059
:102EC00039F48F010D5F1F4F82810E941416F5CFD8
:102ED0008F010E5F1F4F843081F482818F010D5F5F
:102EE0001F4F30E020E0682F6053770BAB016A3052
:102EF000710550F02115310599F48111DECFCDB760
:102F0000DEB7EAE00C947C33A29EC001A39E900D34
:102F100011249A01280F391FF80181918F01E3CF05
:102F2000AFE9BFE01197F1F700C00000215031096F
:102F3000E1CFE22FF0E0E85EF84FB490822F869563
:102F40008695869590E0FC01E85FF84FE490277045
:102F5000F12C022E02C0F594E7940A94E2F7B1E056
:102F6000EB22FF24FC01E850F94FC490D12C022E33
:102F700002C0D594C7940A94E2F7E1E0CE22DD24A2
:102F8000FC01E851F94FC491D0E002C0D595C79536
:102F90002A95E2F7C170DD27E114F10419F081EE02
:102FA0000E94C516C114D10419F086EE0E94C51600
:102FB00070E060E08B2D0E941517C114D10419F048
:102FC00086EE0E941416E114F10419F081EE0E94BD
:102FD0001416CD2B09F471CF8CE264CFB0E0A0E0E1
:102FE000E4EFF7E10C9460337C015B01C42FD22F36
:102FF000FC0185818823A9F0409375040E94820515
:103000009093740480937304C77081E001C0880FAB
:10301000CA95EAF70E940D16CDB7DEB7EAE00C9428
:103020007C331091750414133AC0C0907304D0908F
:1030300074040E9482058C199D096C01B701C501B9
:103040000E94ED0EC816D90650F5C0E2CD0F1D172F
:10305000C1F080E2810F883048F4177081E0012EC2
:1030600001C0880F0A94EAF70E940616C83048F497
:1030700081E09D2F977001C0880F9A95EAF70E9412
:103080000D16802F0E942D17C83030F6D77081E0C2
:1030900001C0880FDA95EAF70E940616BDCFC77007
:1030A00081E001C0880FCA95EAF7F6CFCF93DF938E
:1030B000EC010E94C60C9E01205E310928303105CA
:1030C00010F0209741F40E940D168C2F0E94C51617
:1030D000DF91CF9108950E94FC15F7CF662329F068
:1030E0002091E20422602093E2049C0130522115D9
:1030F000304308F499270E9456180895B0E0A0E0E4
:10310000E4E8F8E10C9462336C018B01E42E8091C9
:10311000110182FF87C0C0917B03D0917C03CC1545
:10312000DD0521F0C114D10409F07CC080911101AA
:103130008B7F8093110181FD6EC080917903909106
:103140007A03A801481B590B81E020910F013091AF
:1031500010014217530708F480E08170F82E809127
:103160001101F0FA81F980931101FE0183E0F695D7
:10317000E7958A95E1F7EE71FF27E75AFC4F20812A
:103180003181AE014F70552781E090E002C0880F79
:10319000991F4A95E2F7FF2009F43FC0822B932B39
:1031A000918380838091580381FF08C08091110131
:1031B00080618093110182E00E94B90A80915803D6
:1031C00085FF08C08091110180628093110180E227
:1031D0000E94B90A6F2DCE010E946E18EE2031F0C8
:1031E00080915E0485FF02C086FF30C0809161043B
:1031F000909162040E94540D80917B0390917C0316
:103200009C0130522115304308F499270E94AD16D5
:103210000E945C1117C081E0A0CF80959095822319
:103220009323BECFC601905281159043A0F4C601EE
:1032300099270E94AD1680917B0390917C038C1599
:103240009D0531F310937A0300937903CDB7DEB770
:10325000E8E00C947E33C601ECCFAAE0B0E0E3E3F3
:10326000F9E10C9458337C01DC0114968C9188238D
:1032700009F465C161E0C7010E94870E8C01F70166
:103280008581882331F180917604909177040097AD
:1032900001F108171907E9F0FC01FF27887F99273A
:1032A000892B09F069C0A4E0EE0FFF1FAA95E1F792
:1032B000E35FFD4F85818460858311830083CF01A7
:1032C0000E9435111092E20461E0C7010E94870E4E
:1032D0008C01D70115968C91882309F4BBC0C801D5
:1032E00097578038910508F0E8C0D02EBFE0B0179E
:1032F00008F415C18FEF93E00E94C53381110FC10F
:103300000CE613E0D1103BC0F4E04F2E9E012F5F7E
:103310003F4F390133243A94D301E42D1D92EA95AD
:10332000E9F76801FFEFCF1ADF0AC8010E94C53331
:103330008983882309F4F3C08130D1F4580122E055
:10334000A20EB11CC6010E94C533582E8A83882361
:1033500009F4E5C08FEF850D8330F8F4680133E0A0
:10336000C30ED11CC5010E94C5338B838823F1F1A4
:10337000C3010E943A173AC0F0E0E0E09BCF01158C
:10338000E4E01E0709F4CBC0C8010E94C5338111D7
:1033900001C0DA940F5F1F4FB5CF8BEF850D8330DF
:1033A00068F5480143E0840E911CC5010E94C533B5
:1033B0008B8364018823D1F0680154E0C50ED11CD1
:1033C000C4010E94C5338C83882381F08B819C814A
:1033D0008130AFEF9A0710F0982F8827B6E05B1680
:1033E00039F0E7E05E1639F00E94ED28860194CFAF
:1033F0000E94C828FBCF0E944F28F8CFF4E0650157
:103400005F12F4CFC5010E94C533B82E680124E0D5
:10341000C20ED11CC80103960E94C533BB2009F41B
:103420007EC0882309F47BC0482F4150550B349E41
:10343000C001359E900D1124AB2DA150BB0B8A0FFE
:103440009B1F019798F2EFE9FFE03197F1F700C079
:103450000000F7CF680127E5D21A3FEFC316D10469
:1034600009F058F563E072E08C2D0E94D90E892B8B
:1034700021F5C60174E0880F991F7A95E1F7FC01E8
:10348000E35FFD4F22812130A1F5209103023091AD
:103490000402232B91F02091050230910602232B88
:1034A00061F0209107023091080240910902509189
:1034B0000A02242B352B232B21F1D70115965C9082
:1034C000552009F440C00E35BCE71B0729F10F3524
:1034D000ECE71E0741F00D35FCE71F07A1F58091D1
:1034E00000018823C9F01092000180E00E94471675
:1034F00016C0223011F72091070230910802232BC9
:10350000E1F2FC01EE5EFD4F20812E7F2083835F80
:103510009D4F0E943511D1CF81E0809300018091B1
:10352000B501877061F0D70115968C91882339F029
:103530008091570382FF03C082E00E94960B2A9677
:10354000E2E10C94743380910001882309F470C681
:10355000380120EE621A71084090C0018091B201DA
:10356000482A80915803482A38E06316710408F00D
:1035700087C098012770332781E090E001C0880F51
:103580002A95EAF7552009F478C0482AD7018D9189
:103590009C910E94FB0A21E030E0190102C0220C3C
:1035A000331C8A95E2F7E0914004F0914104F887DA
:1035B000EF8320918601309187013A8729876EED4C
:1035C000C62E62E0D62EB12CA12CB8E0AB16B10409
:1035D00009F48FC6411005C0D60112968C91811155
:1035E0008BC0F601838190E082219321892B09F41D
:1035F00083C08085982F977009F487E0F8E06F16F4
:10360000710408F057C0552009F450C086958170A8
:10361000882309F471C0D6018D909C900815190576
:1036200019F4552009F468C0EF81F885EC15FD0503
:1036300009F462C0D6011D96ED91FC91309721F0FE
:103640008081882309F458C0642DC6010E942A078E
:10365000882309F451C00815190509F0B3C60115EE
:10366000110509F4B4C65110B4C6E985FA858E1661
:103670009F0609F041C0512CACC68095482286CFE8
:10368000552009F41FC610938701009386010E94FC
:1036900076056093370470933804809339049093CF
:1036A0003A0410923F0410923E0470CF82FB8827A8
:1036B00080F9AECF552001F18170AACF0E94141677
:1036C000ADC60497813A910558F46C2D8EE791E0D0
:1036D0000E949E05552009F4ABC50E94CB101FCF58
:1036E0000E94CB108FE39CE90197F1F700C0000026
:1036F0008C2D0E94C516EECF9FEFA91AB90AAFE034
:10370000CA0ED11C62CFDC012D913C910217130728
:1037100009F088C5511088C510923D0480E00E94D0
:10372000471686C5902F812FC8C5F9014485558558
:1037300066857785C9010E940F06D60115968C9182
:1037400081FFEBC5C6010E941C1180917604909107
:1037500077040817190709F0E0C510927704109252
:103760007604DBC590911101892F8E7F90FF8160D7
:10377000809311010E945C11FBC5809111018E7F25
:10378000F7CF809111018F7E013E110531F0053E8A
:103790001105E9F4809111018F7D809311018091D1
:1037A000110180FF19C0D70115968C9108321105BF
:1037B000F0F40E31110508F06BC00430110548F526
:1037C000882351F010927C0310927B0305C0C8013E
:1037D00090528115904318F7F801E851FC47E73003
:1037E000F10508F0CFC5E55DFB4C0C944B33093374
:1037F000110558F40D32110518F40B32110501F7BB
:1038000090915E0492FDDCCF08C004361105C1F32F
:10381000D7CF90915E0494FDD3CF882309F4A6C03E
:103820008091C00190915803892B8D7FB1F1109246
:103830007C0310927B0380915E0481FD2EC0F80111
:1038400043E0F695E7954A95E1F7EE71FF27E75AD1
:10385000FC4F98012F70332781E090E002C0880F61
:10386000991F2A95E2F780959095208131818223D6
:1038700093239183808360E0C8010E946E18809139
:10388000C0018D7F0E94890A82E00E94960B47CE7C
:1038900090915E0493FD94CFC0CF89E0F701AFED26
:1038A000B1E001900D928A95E1F71092E201109239
:1038B000E10180917B0390917C0308171907D1F5F2
:1038C00020915E0425FF36C03091110131FF02C006
:1038D00026FF30C02091790330917A035601A21A55
:1038E000B30AB7010E94ED0EA816B90618F580912B
:1038F000580381FF08C080911101806180931101FC
:1039000082E00E94B90A8091580385FF08C0809127
:10391000110180628093110180E20E94B90A6091D6
:1039200011016695617080917B0390917C030E94E8
:103930006E18F5CD8091C00190915803982B20917D
:10394000110191FB21F9209311018D7F0E94890AB9
:1039500010937C0300937B03D0927A03C092790387
:10396000809111018460809311018ECF970140E016
:10397000B601C8010E947E18D2CD06E221EE41EECA
:103980006AE17CE7C7010E94EE17C9CD07E225EE88
:1039900045EE6BE17CE7F6CF06E221EE40EE68E112
:1039A0007CE7F0CF07E225EE44EE69E17CE7EACF61
:1039B00006E221EE42EE6CE17CE7E4CF07E225EE81
:1039C00046EE6DE17CE7DECF08E221E045EE6EE1F8
:1039D0007CE7D8CF8091560381608093560395C0D1
:1039E000809157038860809357038FC0809156035E
:1039F0008260F3CF809156038460EFCF80915603AD
:103A00008860EBCF809157038160EDCF80915703A1
:103A10008260E9CF809156038061DFCF80915603A9
:103A20008062DBCF809156038064D7CF0E947B11E8
:103A3000809156038068D1CF809156038C60CDCFA2
:103A4000809157038360CFCF809156038E7FC5CF7F
:103A500080915703877FC7CF809156038D7FBDCF5D
:103A6000809156038B7FB9CF80915603877FB5CF66
:103A7000809157038E7FB7CF809157038D7FB3CF4F
:103A8000809156038F7EA9CF809156038F7DA5CF5D
:103A9000809156038F7BA1CF0E947B1180915603AA
:103AA0008F779BCF80915603837F97CF8091570369
:103AB0008C7F99CF8091560382FB992790F921E062
:103AC000922790FB82F990FB83F987CF809157036F
:103AD000982F909591708E7F892B90FB81F983CFE1
:103AE00090915603892F8F7B96FF806476CF0E943A
:103AF0007B1190915603892F97FB87F980586DCFE2
:103B000061E08EE090E00E94E33360915603709193
:103B1000570384E090E00E9401340E947B11FFCCA7
:103B200060E0EFCF90915603892F8F7E94FF8061E4
:103B300054CF90915603892F8E7F90FF81604DCF97
:103B400090915703892F877F93FF88604CCF063170
:103B5000FCE71F07B9F580915803282F2A7A309186
:103B60005D0430FF04C0482F447409F020E031FFA9
:103B700004C0482F417109F020E032FF04C0482FF3
:103B8000487809F020E033FF03C0827209F020E09A
:103B9000992371F081E0211101C080E080938801B8
:103BA00069E2211165E38EE791E00E949E0595CDC3
:103BB00080918801811104C089E20E9491058DCD18
:103BC00085E3FBCF07372CE71207F9F008373CE70E
:103BD000130731F19801205E32452032310528F576
:103BE000911135C00F7181E090E0AC0102C0440F2B
:103BF000551F0A95E2F78A01642F83E090E00E9446
:103C0000E333802F0E94D00B8ACC81E0992351F0BE
:103C10000E94AD0B43E062E081E00E94690B7FCC23
:103C200082E0F4CF0E94890BF5CF992381F0033015
:103C30005CE7150709F471C008F054C001159CE752
:103C4000190709F45DC001301C4709F46CC0F70185
:103C500087819085009709F474C00E946009182F2D
:103C6000092F86E0F701DE01119601900D928A95E9
:103C7000E1F7F701C580B680B2943FE0B3228091AE
:103C8000B501877001F1AC2CCC20F1F0892F807F39
:103C9000803461F080E2810F8830A8F0892F807E27
:103CA000803221F4123078F0BB2069F08091570304
:103CB00082FF09C082E00E94960B8091B501877057
:103CC000AA24A3948111A12C902E92942FE09222E9
:103CD000FBE0F91508F4A7C0E92DF0E0EE5CFB4C21
:103CE0000C944B330B35BCE71B0749F10C35ECE763
:103CF0001E07D9F00A351C4709F0A9CF81E01CC086
:103D00000E947B112FEF34E34CE0215030404040C3
:103D1000E1F700C000000E9465056FEF7FEF90E0C3
:103D200080E00E9401340E94DF158091570382FBDE
:103D3000882780F991E089270E940B0F88CF80E0C7
:103D4000FBCF858100811181882369F0C8010E9421
:103D5000120ED82E682FC8010E942F0BB8018D2D8E
:103D60000E94F50D7ACFC8010E94FB0AD82EF6CF2B
:103D7000202F2F70D22E802F807F19F0D29490EFB9
:103D8000D922CC20A9F0DD2059F080E2810F8830C3
:103D900010F0111107C08D2D0E94C00A0E94CB1097
:103DA000812F3FC08091E204D82AD092E204F6CF5E
:103DB000812F0E941416DD20B1F180E2810F88303E
:103DC00010F0111104C08D2D0E94B90A03C08D2D71
:103DD0000E94B20A0E94CB1026C0302F3F70D32E13
:103DE000802F807F803219F0D29480EFD822112367
:103DF00051F0113009F49DC0CC2009F4A9C0BB20BA
:103E000009F44DC0CDCF8091570382FD44C0CC2032
:103E1000E1F1DD2029F08D2D0E94C00A0E94CB1017
:103E200080E00E94C516A92DA850BB0B149718F46A
:103E30000E940206A12C812F902F0E94D30B882371
:103E400041F0CC2009F4C0C1BB2009F4B4C11092E8
:103E50008D01AA20A9F08091B50180FD11C0F70164
:103E600015828695869586950E94AD0BC7010E94A6
:103E70002D198091B5018695869586950E94890BAE
:103E800060E0C7010E94870E5ACB80E00E941416A2
:103E9000DD2049F298CFCC2091F1B11004C08D2DD6
:103EA0000E940D16C0CF41E0B41211C08090C00135
:103EB0008D2D8821D81609F4B6CF0E9482059093E3
:103EC000BF018093BE01D828D092C001ACCF8091B1
:103ED0005F04823008F4A7CFB812A5CF8D2D0E94C1
:103EE0000D168D2D0E949D0A8091B2019D2D982363
:103EF000D91609F498CFD82AD092B20194CFB11034
:103F00000AC08D2D0E9406168D2D0E949D0A8D2DB2
:103F10000E94E70A88CF80915F04823008F483CF43
:103F200051E0B51280CF809158038D2109F47BCFE9
:103F3000E8CF80916504CC2021F08B1508F473CF75
:103F4000AECFB81608F06FCF8D2D0E9406166BCF3E
:103F5000BB20D1F38091630490916404193321F064
:103F600080916104909162040E94540D812F0E94FF
:103F7000141659CF802F86958695837069F081300D
:103F800009F051CF812F902F9370C11002C080E0B3
:103F900090E00E94B80547CF812F902F9370C110F9
:103FA00002C080E090E00E94DD053DCF6C2D812FA6
:103FB0000E94EE0B38CF802F837091F5C11033CF64
:103FC000412F429546954770440F440F812F8F70C3
:103FD000042E01C0880F0A94EAF7212F207114FFE4
:103FE00007C02FE030E001C0220F4A95EAF7209584
:103FF000302F369536953370323069F050F4409159
:10400000D001313029F0822B84230E94D00B0BCFBA
:10401000842B822BFACF282B8091D0018227F5CFD9
:104020008695CC2011F0802F8170882309F4FBCE77
:10403000412F429546954770440F440F812F8F7052
:10404000042E01C0880F0A94EAF7212F207114FF73
:1040500007C02FE030E001C0220F4A95EAF7209513
:10406000302F369536953370323069F050F44091E8
:10407000D101313029F0822B84230E94660BD3CEEC
:10408000842B822BFACF282B8091D1018227F5CF68
:10409000802F8F70D82ECC2021F00E94AD0B812F65
:1040A000FFCE812F0E9406168D2D0E94890BBBCE5C
:1040B000123F89F160F4103FB9F0113F81F0CC203C
:1040C00009F474C0B1106CCE802F8F7128C0133FDB
:1040D00049F1143FA1F78091570382FD2FC0802F33
:1040E0008F71CC2011F31BC080916504CC2079F036
:1040F000B81608F098CE202F2F7181E090E001C013
:10410000880F2A95EAF79091D1018927B6CF8B15B0
:1041100008F489CEF0CF802F8F71C110C6CF0E94D6
:10412000AD0B81CE80E0CC2009F4A7CF81E0902FA9
:104130009F7101C0880F9A95EAF79FCF80915F0425
:10414000823008F1CC20A9F09091B501977094309D
:1041500041F40E94C60A802F8F710E94890BA12C06
:1041600062CE63E0B816D8F7802F8F710E94B90B2A
:10417000F6CFB81620F00E94C60A64E0F5CF81E0C1
:104180000E94960BECCFCC2031F063E0802F8F7132
:104190000E94B90B48CE81E00E94960B91E09B15DE
:1041A00008F041CE82E00E94960B3DCEB110D2CEF7
:1041B000802F8F717ACF80918C0180938B018091B9
:1041C000580380938C0145CE1E8220E049815A819C
:1041D0006B817C818D8190E00E94620E009158037A
:1041E000BB2029F010928D0100938C0132CE2091DA
:1041F000890130918A0182179307B1F78091600499
:1042000083FFF0CF80918D01882361F380918B0132
:104210000E940D16812F0E942D1780918B010E9404
:104220000616E0CF552021F0FC01808585FF76CA77
:10423000C80197558F3F910511F008F06EC0C80175
:10424000887F9927892B09F06AC9F801FF2754E074
:10425000EE0FFF1F5A95E1F79F01235F3D4F690164
:10426000D70115968C91EE5EFD4F908180FB90F901
:104270009083882309F459CA0E9482059093DE0135
:104280008093DD01F60182818F5F82838091E20459
:1042900090915803892B83838091C0018483468148
:1042A000578166857785C6010E940F06D60115964F
:1042B0008C9181FF37CA90E080E0909376048093E0
:1042C00077042BC080918601909187010817190708
:1042D00081F4109287011092860110923704109297
:1042E00038041092390410923A0410923F0410924C
:1042F0003E048091400490914104009709F498CFC6
:10430000E8E06E16710408F0FEC9642D0E942A07C9
:10431000811103C081E00E94471680915E0480FFF6
:104320005BCA0E9482056C01F7018581882309F42C
:1043300028CA8091110182FF08C02FED31E040E0D2
:10434000B60190E080E00E947E180431FCE71F0770
:1043500009F413CA05312CE7120709F403CA033123
:104360003CE7130729F480911101816080931101CA
:10437000C80190528115904308F011CA10927C0335
:1043800010927B03F7019581992309F4E0CB1092F9
:104390007504980130572332310508F0D8CB84E0FA
:1043A00090E00E94CD339093570380935603F80119
:1043B000E150F047E232F10508F00CCBE25CFB4C37
:1043C0000C944B338114910409F04FC9512C912C5A
:1043D000812C80E00E944716D0924104C092400494
:1043E00081E080933D048FE08A9DF0018B9DF00D6C
:1043F0001124E252FD4F858180933B0451100EC081
:104400008114910459F0808191819C0124503109DB
:10441000213A310508F052C90E9491058FE08A9D2A
:10442000F0018B9DF00D1124E252FD4FC680D78024
:10443000C6019A9581159F4110F420EED22299244D
:104440009394C60101978F339E4708F0912C8FE01B
:104450008A9DD0018B9DB00D1124A252BD4F19969B
:10446000ED91FC911A97309731F01B966D917C91EC
:1044700081E0099598229920B1F08FE08A9DF001A2
:104480008B9DF00D1124E252FD4F868197810E9491
:10449000C60C80933C04C60148E06416710408F021
:1044A00010C90E94E2060E94CB1014C9B0E0A0E03F
:1044B000ECE5F2E20C9463338091AF01807F09F068
:1044C00054C08091AE01882309F44FC0E091E1040B
:1044D00089E0D82E809198048E1709F446C00E2FDB
:1044E00010E0ED9DF0011124E756FB4F84818823F5
:1044F00009F440C0D09EE001D19ED00D1124FE01F0
:10450000E756FB4F91818091AA01981333C09081A7
:104510008091A90198132EC0858181112BC0E28062
:10452000F3808091AB019091AC01E81AF90A60E048
:1045300089EA91E00E94870E69EA71E00E94ED0E1F
:10454000E816F906B8F48091AF018F70806180930E
:10455000AF01C156DB4F88818F708061888389EA03
:1045600091E00E942D190E94F10ACDB7DEB7E7E075
:104570000C947F33F8013196E770ACCFA8E1B0E03E
:10458000E4ECF2E20C945B338C0186E0F801DE018E
:10459000539601900D928A95E1F7D80114967C907C
:1045A00014971596EC9089EAA82E81E0B82E809198
:1045B000AD0181112AC0711003C0FF24F3941CC007
:1045C000EE20F9F0C8010E944E0EF82E8823C9F0A3
:1045D00089E0F801A9EAB1E001900D928A95E1F72E
:1045E0008091AD01813031F48091A9019091AA01AF
:1045F0000E94410E0E9456228F2D6896EFE00C9487
:104600007733C8010E942D19D8CFF80150806180FE
:10461000C280D38060E089EA91E00E94870EF0902A
:10462000AE018091AB019091AC014601881A990AC4
:1046300060E089EA91E0FF2009F428C10E94870E1A
:1046400069EA71E00E94ED0E8816990608F0D1C063
:10465000772009F4B2CF8091AF01382F307F2091BD
:10466000AA01D80111969C911197311171C029139B
:104670001FC02091A9019C9129131AC04091B0013B
:104680005091B10117962D913C914217530781F437
:10469000E11054C08F7080618093AF0189EA91E08E
:1046A0000E942D198091AF01F8018683F12CA4CFCF
:1046B000E11044C0662D852D0E94EB03E82E88236F
:1046C00081F08091600480FFF1CF89EA91E00E943F
:1046D0002D1989E0E9EAF1E0DF011D928A95E9F7F9
:1046E000E5CF5B8A6C8A8B899C890E94410E292FB9
:1046F00022952F70243058F49F70223088F099232F
:1047000099F0F8019681907F79F4FE2C75CF2A5F9D
:104710002F70223068F0C8010E942D19EF2CF5CFC0
:10472000992311F0882389F3805E883070F3F3CFEA
:10473000803F58F3815F833070F7E7CF8091AF01FE
:1047400081608093AF018091600481FDAFCFBDCFC8
:10475000291320C02091A9019C9129131BC04091CD
:10476000B0015091B10117962D913C9118974217C5
:10477000530781F4E1100EC016968C93C8010E9475
:104780002D1989E0F801A9EAB1E001900D928A950E
:10479000E1F732CFC8010E944E0E882309F431CFD1
:1047A000EE2009F42ECF8091AF018032B8F0209135
:1047B000A9013091AA013B872A87DD86CC8690919A
:1047C000AD019E871F86888B8091B0019091B101C9
:1047D0009A8B898BCE010A960E942D1989E0F801E7
:1047E000A9EAB1E001900D928A95E1F70E94562264
:1047F000E4CE8091AF01982F907F09F466CF7720A7
:1048000009F4DBCE2091AA01F801918129131AC085
:104810002091A9019081291315C04091B0015091B8
:10482000B101278130854217530761F4E1100AC0B6
:104830008683C8010E942D1989E0D5011D928A95B1
:10484000E9F7DACEC8010E944E0E882309F4D9CECA
:10485000EE2009F4D6CE8091AF01803208F4BECFAD
:104860002091A9013091AA013A832983DC82CB826D
:104870009091AD019D831E828F838091B0019091B4
:10488000B10199878887CE010196A6CF0E94870E35
:1048900069EA71E00E94ED0E8816990608F055C08D
:1048A000772009F48ACEFE2CEE2009F4AACE90914E
:1048B000AA01F801818198133AC09091A9018081E1
:1048C000981335C02091B0013091B1018781908556
:1048D0002817390761F5A090AB01B090AC0160E0FA
:1048E00089EA91E00E94870E8091600482FD49CFA1
:1048F000CA18DB0880915B0490915C04C816D90645
:1049000008F03FCF8091AF0180FD3BCF982F907F83
:1049100009F437CFD80116968C931697903F09F477
:104920002DCF982F907F905F8F70892B25CFC80156
:104930000E944E0E811152CF8091AF018160809311
:10494000AF01C8010E942D1957CE89E0F5011192DF
:104950008A95E9F751CEA2E1B0E0E1EBF4E20C94E4
:1049600066330A871B872C873D874E875F87688B56
:10497000798B8A8BCE010A960E94BE2281110CC0CF
:1049800089E0FE013A96DE01119601900D928A951A
:10499000E1F78E8581110BC019E08091E1049091BF
:1049A0009804891331C06296E4E00C94823320911C
:1049B000980430E0C9010196877099274091E1047D
:1049C0004817190699F099E0929FD001939FB00D76
:1049D0001124A756BB4FFE01319601900D929A9576
:1049E000E1F7809398040E94F10AD6CF0E947B11D0
:1049F000109298041092E10489E0E9EAF1E0DF0105
:104A00001D928A95E9F7C8CF819FC001112487566E
:104A10009B4F0E94BE22882331F28091E10490E0F6
:104A20000196877099278093E104B7CFEF92FF92A8
:104A30000F931F93CF93DF938091B803882361F086
:104A4000E0917F038DE0F82E8091B803E81748F0DD
:104A50001092B80310927F03CDB7DEB7E6E00C9456
:104A60008033EE24E394EE0EE0927F03CE2FD0E06D
:104A7000EF9DF0011124E754FC4F84818823E9F075
:104A800087819085892B21F481859285019659F43F
:104A90000081118122813381448155816681778132
:104AA00080850E94AB24FC9EF001FD9EF00D112438
:104AB000E754FC4F14821092E204EE2DC5CF109201
:104AC0002C0410922B041092120180912A048093DE
:104AD00029040E9478070E9416250895B0E0A0E0FE
:104AE000E4E7F5E20C945933C091290497E0992E3C
:104AF00001E010E02DE0322E34E0432E5524539493
:104B000080912A048C1309C00E9416250E94780700
:104B1000CDB7DEB7E1E10C947533D0E0FE01EE0FC6
:104B2000FF1FEF5DFB4F80819181989ED001999E80
:104B3000B00D1124A058BC4F14962C91149721113C
:104B400059C06090B803E9EBF3E030E020E0812C3D
:104B50005D01261508F04CC0E384F484D501CD90A6
:104B6000DC906FEF7FEF712C472D50E0DA01AA0F38
:104B7000BB1FAC0DBD1D0D90BC91A02D109731F049
:104B8000EA16FB0609F4BA017394EECF6F3F76077D
:104B9000A9F1D80102C0AA0FBB1F6A95E2F78A2AC1
:104BA000B801072C02C0660F771F0A94E2F7AB0129
:104BB000415051098416150601F5329EF001339ECD
:104BC000F00D1124E754FC4F989ED001999EB00D32
:104BD0001124A058BC4F12962D913C911397308709
:104BE00027834482108211829287818715965C9276
:104BF0000E944A072196C37083CF14822F5F3F4FD4
:104C00003D96A7CFAEE1B0E0E8E0F6E20C94583371
:104C10004B8B5C8B6D8B7E8B8F8B988F192F8823A2
:104C200009F470C020E00E94620E112349F0109236
:104C30008D0190938A01809389011092E2040AC049
:104C40002091890130918A012817390719F481E0F0
:104C500080938D01188A198A1A8A86E0FE0173965C
:104C6000DE011A9601900D928A95E1F78091570323
:104C700082FF1EC08091450490914604892BC1F0AB
:104C80000E9482052091B3013091B401821B930BE5
:104C900020914504309146048217930720F08091BB
:104CA000B50182FFF8C10E94CD0A81110E947E0ADF
:104CB0008E858823D9F061E0CE010A960E94870E86
:104CC00061E0CE010A960E94870E61E0CE010A964D
:104CD0000E94870E6C018F8520E5C2162CE7D20654
:104CE000A9F4882349F181E0809312010A851B858C
:104CF0002C853D854E855F85688979898A890E94E2
:104D0000AB24D3C0992309F4A5CF97CF31E5C316BF
:104D10003CE7D30629F4882379F00E945F25E6CF8B
:104D200042E5C4164CE7D40639F4882329F0809173
:104D300012018111F2CFD7CF80E8E82E83E0F82E60
:104D4000512CB12CA12C22242394312CBE016F5F55
:104D50007F4F7A8F698FF7014081518188248A942F
:104D6000982C20E0822F90E0FC01EE0FFF1FE40F53
:104D7000F51F608171816115710531F0C616D70686
:104D800009F44C012F5FEECF10E0FFEF8F169F0666
:104D900009F44CC0F701448110911201812F411197
:104DA00080E0182F1170F701458086819F85992337
:104DB00009F4FDC0112309F4FAC060905904709001
:104DC0005A04411013C0A101082C01C0440F0A94D9
:104DD000EAF7842B868380917D0390917E0386156C
:104DE000970520F470927E0360927D03C10102C09A
:104DF000880F991F2A95E2F70197F7012681281756
:104E00001906A1F480902B0490902C048114910435
:104E100009F44FC00E94820588199909681679061D
:104E200008F047C021E0F701248311E0512AFFEF89
:104E3000AF1ABF0A27E0E20EF11C38E0A316B10456
:104E400009F089CF8F85882309F411C1552009F411
:104E50000EC10E94820590932C0480932B048091B4
:104E6000B803883010F591E0980F9093B80399E05B
:104E7000FE013A96DE01119601900D929A95E1F7A6
:104E80004DE0849FC001112487549C4F29E0FE010E
:104E90003196DC0101900D922A95E1F72FEF3FEF5B
:104EA000FC0132872187D486C3866E96E2E10C949A
:104EB00074338091290450912A04982FF0E0E0E0A7
:104EC000851314C090932904EE16FF0609F4AECFA3
:104ED00090E0FC01EE0FFF1FEF5DFB4FB182A0825F
:104EE00001968370992780932A04A0CF682E712C95
:104EF000F301EE0FFF1FEF5DFB4F2081318147E093
:104F0000429FD001439FB00D1124A058BC4F6D911A
:104F10007C9111977E8F6D8F40E020E030E0E32F91
:104F2000F0E0EE0FFF1F6D8D7E8DE60FF71F808086
:104F3000918081149104E1F0F7010190F081E02D5E
:104F4000FC8FEB8F20E005C08616970609F4412FF1
:104F50002F5FE22FF0E0EE0FFF1F6B8D7C8DE60FD1
:104F6000F71F608171816115710571F73F5FD7CFC0
:104F70004423D1F0F701231708F0FD0121E0248339
:104F8000EE16FF0621F490932904142F4FCF8913B6
:104F900005C0AE17BF0711F49F5F937093012F5F99
:104FA0003F4F822F83708CCFF0E0E0E0F7CF90E0AE
:104FB000411020C0B10102C0660F771F2A95E2F7A9
:104FC0009B01215031092817390731F4442309F492
:104FD0004CC0C5010E944A07C101082C01C0880FBE
:104FE0000A94EAF7982F9095F701868189238683A2
:104FF000142D1CCFAC01082C02C0559547950A947E
:10500000E2F7BA01617077279C01215031098223B0
:105010009323892B31F5672B21F1F701828193814D
:10502000892BE1F0E98DFA8D27E011922A95E9F7B5
:105030000E948205282F8B839C8334E03D83F701F7
:1050400082819381782F8887998709811A813C8191
:1050500044E05E816F81892F0E94AB24F7011582A5
:10506000BBCFF42FF1704F2EB7CF412EB5CF90911B
:10507000290480912A04981729F00E946E25511066
:1050800014CF34CE0E94162510922C0410922B04BB
:105090000E947807F4CF82E00E94960B04CEA6E02F
:1050A000B0E0E5E5F8E20C9468339093FA01809360
:1050B000F901811520E2920730F40E94AD16269680
:1050C000E2E00C94843380EF89838A830E94820516
:1050D0008160682F9C838B8349815A817C8181E028
:1050E00090E00E940226EBCF0F931F93CF93DF93A4
:1050F0008C01EB0163E072E08C2F0E94D90E892BAA
:10510000A1F480916104909162040E94540DDD2706
:10511000C550DE4F8881F801128218828330F1F089
:1051200048F4813059F0823081F0DF91CF911F91A6
:105130000F9108958430B9F08530B9F7809103025A
:1051400090910402009789F306C080910502909126
:105150000602009799F30E944F28E7CF809107023B
:1051600090910802F6CF8091090290910A0200976F
:1051700091F72091030230910402809105029091F1
:10518000060221153105F1F2009729F7C901E3CF95
:10519000A6E0B0E0EEECF8E20C9468339093FA01EC
:1051A0008093F901811520E2920730F40E9456188D
:1051B0002696E2E00C94843380EF89838A830E94F0
:1051C00082058160682F9C838B8349815A817C8111
:1051D00081E091E00E940226EBCFCF93DF93EC01B8
:1051E0000E94C82880916104909162040E94540D2D
:1051F000CE010E944F28DF91CF9108950F931F9306
:10520000CF93DF938C01862F63E072E00E94D90E6A
:10521000892BB1F4C0910302D0910402209781F050
:10522000F8018281833051F4CE010E94ED28CE0135
:105230000E94ED28CE010E94ED2802C08430D0F7F4
:10524000DF91CF911F910F9108950F931F93CF93EB
:10525000DF938C01EB0163E072E08C2F0E94D90E8A
:10526000892B09F05CC0FE01FF27D80112968C91B2
:105270001297E550FE4F8130B9F415969C9192FF3C
:1052800002C080830AC090FFFCCF82E080838091BF
:105290000502909106020097B9F480910302909163
:1052A00004020097E1F110C08230B9F515968C9197
:1052B00082FD28C080FD0BC083E0808380910702BF
:1052C00090910802009701F10E94C82828C084E04C
:1052D00080838091090290910A020097A9F780913A
:1052E0000302909104020097F9F00E94ED2880914A
:1052F000050290910602009739F780910302909180
:105300000402E2CF85E08083809103029091040241
:10531000009729F00E94ED28F0CF86E08083DF918E
:10532000CF911F910F9108958091050290910602EF
:10533000B8CFA6E0B0E0EFE9F9E20C9466330E9442
:1053400082058C018091C1019091C2018017910763
:1053500081F019821A820E948205682F49815A8140
:10536000792F80E090E00E9402261093C201009302
:10537000C1012696E4E00C9482331F920F920FB67F
:105380000F9211242F933F934F935F936F937F93CB
:105390008F939F93AF93BF93CF93DF93EF93FF933D
:1053A000D091E900DF708091EC00C82FC17080FDC2
:1053B000C0E81092E9008091F000877F8093F000B0
:1053C00078940E94A2111092E9008091F000886008
:1053D0008093F000CD2BCF70C093E900FF91EF9147
:1053E000DF91CF91BF91AF919F918F917F916F91FD
:1053F0005F914F913F912F910F900FBE0F901F9093
:1054000018951F920F920FB60F9211242F933F936E
:105410004F935F936F937F938F939F93AF93BF93BC
:10542000EF93FF938091E10082FF09C08091E20039
:1054300082FF05C08091E1008B7F8093E100809125
:10544000DA0080FF24C08091D80080FF20C08091C6
:10545000DA008E7F8093DA008091D90080FFAAC0A5
:1054600080E189BD82E189BD09B400FEFDCF81E004
:1054700080938E0480918304811109C00E940A04E4
:105480000E94AB048091E20084608093E2008091EE
:10549000E10080FF1AC08091E20080FF16C0809179
:1054A000E2008E7F8093E2008091E2008061809331
:1054B000E2008091D80080628093D80019BC85E01A
:1054C00080938E0483E080931A018091E10084FF31
:1054D00030C08091E20084FF2CC080E189BD82E170
:1054E00089BD99B5892F817090FFFBCF9091D8002D
:1054F0009F7D9093D8009091E1009F7E9093E10072
:105500009091E2009F7E9093E2009091E200916082
:105510009093E20090918F04992309F451C094E094
:1055200090938E0490918E04943009F482E08093DD
:105530001A018091E10083FF2CC08091E20083FF7B
:1055400028C08091E100877F8093E10082E0809312
:105550008E0410928F048091E1008E7F8093E10091
:105560008091E2008E7F8093E2008091E200806172
:105570008093E20042E060E080E00E947904809144
:10558000F00088608093F00081E080931A0180939E
:105590001901FF91EF91BF91AF919F918F917F91F1
:1055A0006F915F914F913F912F910F900FBE0F9090
:1055B0001F90189519BC10928E041092830467CF27
:1055C0009091E30097FD02C0982FAACF93E0A8CF57
:1055D00078941F921FB61F9211248F939F93AF93BD
:1055E000BF9380917F0490918004A0918104B09139
:1055F00082040196A11DB11D80937F0490938004C5
:10560000A0938104B0938204BF91AF919F918F9139
:105610001F901FBE1F9018951F921FB61F92112436
:105620008F939F93AF93BF9380917E04811113C09A
:1056300080917F0490918004A0918104B0918204B4
:105640004196A11DB11D80937F0490938004A09387
:105650008104B0938204BF91AF919F918F911F906D
:105660001FBE1F901895CDB7DEB7C054D1090FB635
:10567000F894DEBF0FBECDBF85B7806885BF85B704
:10568000806885BF84B7877F84BF0FB6F894A895DC
:1056900080916000886180936000109260000FBE6E
:1056A00080E890E00FB6F8948093610090936100D9
:1056B0000FBE81E080931A0186E598E090937D010A
:1056C00080937C010E9431080E94D70F0E94530FE3
:1056D0000E94B30E0E940A040E94AB048091E20073
:1056E00084608093E200789480918E048823A1F0F6
:1056F0001091E9001F709091EC00892F817090FD4E
:1057000080E8182B1092E9008091E80083FD0E9448
:10571000A2111F701093E90082E084BD93E095BD53
:105720009AEF97BD80936E000E94AD0D811102C06B
:105730000E9454150CE511E026E6E22E21E0F22E3F
:10574000D8018D918D018F3F11F00E945808E0160D
:10575000F106B1F706E611E0F80181918F018F3F64
:1057600011F00E945808F1E00D361F07A9F78AE0F2
:10577000EDEEF1E0DF01282F1D922A95E9F7E6EC26
:10578000F1E0DF011D928A95E9F790E080E00E9448
:10579000CD33853E9E4F21F40E94AD0D811163C033
:1057A00065EE7EEF90E080E00E94013460E082E0F0
:1057B00090E00E94E33381E08093D00161E083E0D8
:1057C00090E00E94E33360E074E184E090E00E94A6
:1057D000013460E086E090E00E94E33360E087E01F
:1057E00090E00E94E33340E050E0BA0188E090E0AE
:1057F0000E94F53360E083E290E00E94E33360E0D2
:105800008CE090E00E94E33360E08DE090E00E9445
:10581000E33319821A821B821C821D821E821F8220
:10582000188648E050E067E170E0CE0101960E94E2
:10583000D33340E050E0BA018FE190E00E94F533AD
:1058400080E00E945E0D0E94541540E050E0BA01D5
:105850008FE090E00E94F53340E050E0BA0183E130
:1058600090E00E94F53382E090E00E94C53380937F
:10587000D20184E090E00E94CD339093570380934F
:1058800056030E941B10EFEFF6E721E0E150F040D5
:105890002040E1F700C000000E941B108091ED0144
:1058A00080FF08C06FEF7FEF90E080E00E9401343E
:1058B0000E94650583E090E00E94C5330E94D00BF2
:1058C00081E091E090937B0480937A048DEE91E0E7
:1058D0003AE0380F21963FAF2197332433942224A6
:1058E0002394CE018B969BAF8AAF8E010F5F1F4F23
:1058F000DE011396BDAFACAF80918E04853079F494
:10590000B0E4FB2E80E1E82E92E1D92E80918E0446
:10591000853009F450C00E947B110E9402060E944B
:105920001B10F3EDCF2EF1E0DF2EADEEEA2EA1E05D
:10593000FA2ED701F60191918D9131E0ED3DF307FB
:1059400009F46DC09817B9F3EDEEAE2EE1E0BE2E6E
:10595000912CD5018D905D01F60151906F01581485
:1059600019F1712C662463945824852D8621A1F0A9
:105970007CAA9DAA0E9482059FAB8EAB28AE91E0C7
:10598000862D882109F490E099AF4CA95DA96EA9F4
:105990007FA988AD0E9402267394660CF7E07F12FF
:1059A000E4CFF6013197808293942AE09212D1CF0E
:1059B0000E94760538C080918E04843019F11092CF
:1059C0007E04E8E1F0E00FB6F894A895E09360005B
:1059D0000FBEF092600083B7817F846083BF83B77E
:1059E000816083BF7894889583B78E7F83BF0FB61D
:1059F000F894A8958091600088618093600010926F
:105A000060000FBE0E941B10EDEEF1E0819181114C
:105A1000C3C521962FAD21972E13F8CF77CF9813BA
:105A200093CF0E949929C0903E04D0903F04C114A6
:105A3000D10491F18090330490903404A090350407
:105A4000B09036040E947605681979098A099B0985
:105A500080902F0490903004A0903104B0903204D4
:105A6000681579058A059B05B8F0C6010E9456188D
:105A700010923F0410923E041092330410923404AA
:105A8000109235041092360410922F0410923004B4
:105A90001092310410923204C0907604D0907704B2
:105AA000C114D10479F1A090DD01B090DE010E9413
:105AB00082058A199B095C0189E0AAADBBAD1D92E4
:105AC0008A95E9F7BE01655D7F4FC6010E94ED0E24
:105AD0008A159B05B8F42091760430917704C901AA
